{
  "_format": "hh-sol-artifact-1",
  "contractName": "Swap",
  "sourceName": "contracts/Swap.sol",
  "abi": [
    {
      "inputs": [
        {
          "internalType": "address",
          "name": "_router",
          "type": "address"
        },
        {
          "internalType": "address",
          "name": "_WETH",
          "type": "address"
        }
      ],
      "stateMutability": "nonpayable",
      "type": "constructor"
    },
    {
      "inputs": [],
      "name": "WETH",
      "outputs": [
        {
          "internalType": "address",
          "name": "",
          "type": "address"
        }
      ],
      "stateMutability": "view",
      "type": "function"
    },
    {
      "inputs": [],
      "name": "router",
      "outputs": [
        {
          "internalType": "address",
          "name": "",
          "type": "address"
        }
      ],
      "stateMutability": "view",
      "type": "function"
    },
    {
      "inputs": [
        {
          "internalType": "uint256",
          "name": "amountIn",
          "type": "uint256"
        },
        {
          "internalType": "uint256",
          "name": "amountOutMin",
          "type": "uint256"
        },
        {
          "internalType": "address[]",
          "name": "path",
          "type": "address[]"
        },
        {
          "internalType": "address",
          "name": "to",
          "type": "address"
        },
        {
          "internalType": "uint256",
          "name": "deadline",
          "type": "uint256"
        }
      ],
      "name": "swapExactTokensForTokens",
      "outputs": [
        {
          "internalType": "uint256[]",
          "name": "amounts",
          "type": "uint256[]"
        }
      ],
      "stateMutability": "nonpayable",
      "type": "function"
    },
    {
      "inputs": [
        {
          "internalType": "uint256",
          "name": "amountOut",
          "type": "uint256"
        },
        {
          "internalType": "uint256",
          "name": "amountInMax",
          "type": "uint256"
        },
        {
          "internalType": "address[]",
          "name": "path",
          "type": "address[]"
        },
        {
          "internalType": "address",
          "name": "to",
          "type": "address"
        },
        {
          "internalType": "uint256",
          "name": "deadline",
          "type": "uint256"
        }
      ],
      "name": "swapTokensForExactTokens",
      "outputs": [
        {
          "internalType": "uint256[]",
          "name": "amounts",
          "type": "uint256[]"
        }
      ],
      "stateMutability": "nonpayable",
      "type": "function"
    }
  ],
  "bytecode": "0x60c060405234801561001057600080fd5b506040516109fe3803806109fe83398101604081905261002f91610062565b6001600160a01b039182166080521660a052610095565b80516001600160a01b038116811461005d57600080fd5b919050565b6000806040838503121561007557600080fd5b61007e83610046565b915061008c60208401610046565b90509250929050565b60805160a0516109236100db6000396000609201526000818160d1015281816101d60152818161026c01528181610303015281816104ec015261058201526109236000f3fe608060405234801561001057600080fd5b506004361061004c5760003560e01c806338ed1739146100515780638803dbee1461007a578063ad5c46481461008d578063f887ea40146100cc575b600080fd5b61006461005f366004610631565b6100f3565b60405161007191906106d3565b60405180910390f35b610064610088366004610631565b6102fd565b6100b47f000000000000000000000000000000000000000000000000000000000000000081565b6040516001600160a01b039091168152602001610071565b6100b47f000000000000000000000000000000000000000000000000000000000000000081565b60608484600081811061010857610108610717565b905060200201602081019061011d919061072d565b6040516323b872dd60e01b8152336004820152306024820152604481018990526001600160a01b0391909116906323b872dd906064016020604051808303816000875af1158015610172573d6000803e3d6000fd5b505050506040513d601f19601f82011682018060405250810190610196919061074f565b50848460008181106101aa576101aa610717565b90506020020160208101906101bf919061072d565b60405163095ea7b360e01b81526001600160a01b037f000000000000000000000000000000000000000000000000000000000000000081166004830152602482018a9052919091169063095ea7b3906044016020604051808303816000875af1158015610230573d6000803e3d6000fd5b505050506040513d601f19601f82011682018060405250810190610254919061074f565b506040516338ed173960e01b81526001600160a01b037f000000000000000000000000000000000000000000000000000000000000000016906338ed1739906102ab908a908a908a908a908a908a906004016107b8565b6000604051808303816000875af11580156102ca573d6000803e3d6000fd5b505050506040513d6000823e601f3d908101601f191682016040526102f2919081019061080c565b979650505050505050565b606060007f00000000000000000000000000000000000000000000000000000000000000006001600160a01b0316631f00ca748988886040518463ffffffff1660e01b8152600401610351939291906108ca565b600060405180830381865afa15801561036e573d6000803e3d6000fd5b505050506040513d6000823e601f3d908101601f19168201604052610396919081019061080c565b90506000816000815181106103ad576103ad610717565b602002602001015190508781111561040b5760405162461bcd60e51b815260206004820152601660248201527f45786365737369766520696e70757420616d6f756e7400000000000000000000604482015260640160405180910390fd5b8686600081811061041e5761041e610717565b9050602002016020810190610433919061072d565b6040516323b872dd60e01b8152336004820152306024820152604481018390526001600160a01b0391909116906323b872dd906064016020604051808303816000875af1158015610488573d6000803e3d6000fd5b505050506040513d601f19601f820116820180604052508101906104ac919061074f565b50868660008181106104c0576104c0610717565b90506020020160208101906104d5919061072d565b60405163095ea7b360e01b81526001600160a01b037f00000000000000000000000000000000000000000000000000000000000000008116600483015260248201849052919091169063095ea7b3906044016020604051808303816000875af1158015610546573d6000803e3d6000fd5b505050506040513d601f19601f8201168201806040525081019061056a919061074f565b50604051634401edf760e11b81526001600160a01b037f00000000000000000000000000000000000000000000000000000000000000001690638803dbee906105c1908c908c908c908c908c908c906004016107b8565b6000604051808303816000875af11580156105e0573d6000803e3d6000fd5b505050506040513d6000823e601f3d908101601f19168201604052610608919081019061080c565b9998505050505050505050565b80356001600160a01b038116811461062c57600080fd5b919050565b60008060008060008060a0878903121561064a57600080fd5b8635955060208701359450604087013567ffffffffffffffff8082111561067057600080fd5b818901915089601f83011261068457600080fd5b81358181111561069357600080fd5b8a60208260051b85010111156106a857600080fd5b6020830196508095505050506106c060608801610615565b9150608087013590509295509295509295565b6020808252825182820181905260009190848201906040850190845b8181101561070b578351835292840192918401916001016106ef565b50909695505050505050565b634e487b7160e01b600052603260045260246000fd5b60006020828403121561073f57600080fd5b61074882610615565b9392505050565b60006020828403121561076157600080fd5b8151801515811461074857600080fd5b8183526000602080850194508260005b858110156107ad576001600160a01b0361079a83610615565b1687529582019590820190600101610781565b509495945050505050565b86815285602082015260a0604082015260006107d860a083018688610771565b6001600160a01b039490941660608301525060800152949350505050565b634e487b7160e01b600052604160045260246000fd5b6000602080838503121561081f57600080fd5b825167ffffffffffffffff8082111561083757600080fd5b818501915085601f83011261084b57600080fd5b81518181111561085d5761085d6107f6565b8060051b604051601f19603f83011681018181108582111715610882576108826107f6565b6040529182528482019250838101850191888311156108a057600080fd5b938501935b828510156108be578451845293850193928501926108a5565b98975050505050505050565b8381526040602082015260006108e4604083018486610771565b9594505050505056fea26469706673582212204a52bd68aaffe4006bb95a95b7ae3eccad352b7ab0854d18f834aec1360d4dcb64736f6c63430008140033",
  "linkReferences": {},
  "deployedLinkReferences": {}
}