{
  "_format": "hh-sol-artifact-1",
  "contractName": "UniswapV2Pair",
  "sourceName": "contracts/UniswapV2Pair.sol",
  "abi": [
    {
      "inputs": [],
      "stateMutability": "nonpayable",
      "type": "constructor"
    },
    {
      "inputs": [
        {
          "internalType": "address",
          "name": "spender",
          "type": "address"
        },
        {
          "internalType": "uint256",
          "name": "allowance",
          "type": "uint256"
        },
        {
          "internalType": "uint256",
          "name": "needed",
          "type": "uint256"
        }
      ],
      "name": "ERC20InsufficientAllowance",
      "type": "error"
    },
    {
      "inputs": [
        {
          "internalType": "address",
          "name": "sender",
          "type": "address"
        },
        {
          "internalType": "uint256",
          "name": "balance",
          "type": "uint256"
        },
        {
          "internalType": "uint256",
          "name": "needed",
          "type": "uint256"
        }
      ],
      "name": "ERC20InsufficientBalance",
      "type": "error"
    },
    {
      "inputs": [
        {
          "internalType": "address",
          "name": "approver",
          "type": "address"
        }
      ],
      "name": "ERC20InvalidApprover",
      "type": "error"
    },
    {
      "inputs": [
        {
          "internalType": "address",
          "name": "receiver",
          "type": "address"
        }
      ],
      "name": "ERC20InvalidReceiver",
      "type": "error"
    },
    {
      "inputs": [
        {
          "internalType": "address",
          "name": "sender",
          "type": "address"
        }
      ],
      "name": "ERC20InvalidSender",
      "type": "error"
    },
    {
      "inputs": [
        {
          "internalType": "address",
          "name": "spender",
          "type": "address"
        }
      ],
      "name": "ERC20InvalidSpender",
      "type": "error"
    },
    {
      "anonymous": false,
      "inputs": [
        {
          "indexed": true,
          "internalType": "address",
          "name": "owner",
          "type": "address"
        },
        {
          "indexed": true,
          "internalType": "address",
          "name": "spender",
          "type": "address"
        },
        {
          "indexed": false,
          "internalType": "uint256",
          "name": "value",
          "type": "uint256"
        }
      ],
      "name": "Approval",
      "type": "event"
    },
    {
      "anonymous": false,
      "inputs": [
        {
          "indexed": true,
          "internalType": "address",
          "name": "sender",
          "type": "address"
        },
        {
          "indexed": false,
          "internalType": "uint256",
          "name": "amount0",
          "type": "uint256"
        },
        {
          "indexed": false,
          "internalType": "uint256",
          "name": "amount1",
          "type": "uint256"
        },
        {
          "indexed": true,
          "internalType": "address",
          "name": "to",
          "type": "address"
        }
      ],
      "name": "Burn",
      "type": "event"
    },
    {
      "anonymous": false,
      "inputs": [
        {
          "indexed": true,
          "internalType": "address",
          "name": "sender",
          "type": "address"
        },
        {
          "indexed": false,
          "internalType": "uint256",
          "name": "amount0",
          "type": "uint256"
        },
        {
          "indexed": false,
          "internalType": "uint256",
          "name": "amount1",
          "type": "uint256"
        }
      ],
      "name": "Mint",
      "type": "event"
    },
    {
      "anonymous": false,
      "inputs": [
        {
          "indexed": true,
          "internalType": "address",
          "name": "sender",
          "type": "address"
        },
        {
          "indexed": false,
          "internalType": "uint256",
          "name": "amount0In",
          "type": "uint256"
        },
        {
          "indexed": false,
          "internalType": "uint256",
          "name": "amount1In",
          "type": "uint256"
        },
        {
          "indexed": false,
          "internalType": "uint256",
          "name": "amount0Out",
          "type": "uint256"
        },
        {
          "indexed": false,
          "internalType": "uint256",
          "name": "amount1Out",
          "type": "uint256"
        },
        {
          "indexed": true,
          "internalType": "address",
          "name": "to",
          "type": "address"
        }
      ],
      "name": "Swap",
      "type": "event"
    },
    {
      "anonymous": false,
      "inputs": [
        {
          "indexed": false,
          "internalType": "uint112",
          "name": "reserve0",
          "type": "uint112"
        },
        {
          "indexed": false,
          "internalType": "uint112",
          "name": "reserve1",
          "type": "uint112"
        }
      ],
      "name": "Sync",
      "type": "event"
    },
    {
      "anonymous": false,
      "inputs": [
        {
          "indexed": true,
          "internalType": "address",
          "name": "from",
          "type": "address"
        },
        {
          "indexed": true,
          "internalType": "address",
          "name": "to",
          "type": "address"
        },
        {
          "indexed": false,
          "internalType": "uint256",
          "name": "value",
          "type": "uint256"
        }
      ],
      "name": "Transfer",
      "type": "event"
    },
    {
      "inputs": [],
      "name": "MINIMUM_LIQUIDITY",
      "outputs": [
        {
          "internalType": "uint256",
          "name": "",
          "type": "uint256"
        }
      ],
      "stateMutability": "view",
      "type": "function"
    },
    {
      "inputs": [
        {
          "internalType": "address",
          "name": "owner",
          "type": "address"
        },
        {
          "internalType": "address",
          "name": "spender",
          "type": "address"
        }
      ],
      "name": "allowance",
      "outputs": [
        {
          "internalType": "uint256",
          "name": "",
          "type": "uint256"
        }
      ],
      "stateMutability": "view",
      "type": "function"
    },
    {
      "inputs": [
        {
          "internalType": "address",
          "name": "spender",
          "type": "address"
        },
        {
          "internalType": "uint256",
          "name": "value",
          "type": "uint256"
        }
      ],
      "name": "approve",
      "outputs": [
        {
          "internalType": "bool",
          "name": "",
          "type": "bool"
        }
      ],
      "stateMutability": "nonpayable",
      "type": "function"
    },
    {
      "inputs": [
        {
          "internalType": "address",
          "name": "account",
          "type": "address"
        }
      ],
      "name": "balanceOf",
      "outputs": [
        {
          "internalType": "uint256",
          "name": "",
          "type": "uint256"
        }
      ],
      "stateMutability": "view",
      "type": "function"
    },
    {
      "inputs": [
        {
          "internalType": "address",
          "name": "to",
          "type": "address"
        }
      ],
      "name": "burn",
      "outputs": [
        {
          "internalType": "uint256",
          "name": "amount0",
          "type": "uint256"
        },
        {
          "internalType": "uint256",
          "name": "amount1",
          "type": "uint256"
        }
      ],
      "stateMutability": "nonpayable",
      "type": "function"
    },
    {
      "inputs": [],
      "name": "decimals",
      "outputs": [
        {
          "internalType": "uint8",
          "name": "",
          "type": "uint8"
        }
      ],
      "stateMutability": "view",
      "type": "function"
    },
    {
      "inputs": [],
      "name": "factory",
      "outputs": [
        {
          "internalType": "address",
          "name": "",
          "type": "address"
        }
      ],
      "stateMutability": "view",
      "type": "function"
    },
    {
      "inputs": [],
      "name": "getReserves",
      "outputs": [
        {
          "internalType": "uint112",
          "name": "_reserve0",
          "type": "uint112"
        },
        {
          "internalType": "uint112",
          "name": "_reserve1",
          "type": "uint112"
        },
        {
          "internalType": "uint32",
          "name": "_blockTimestampLast",
          "type": "uint32"
        }
      ],
      "stateMutability": "view",
      "type": "function"
    },
    {
      "inputs": [
        {
          "internalType": "address",
          "name": "_token0",
          "type": "address"
        },
        {
          "internalType": "address",
          "name": "_token1",
          "type": "address"
        }
      ],
      "name": "initialize",
      "outputs": [],
      "stateMutability": "nonpayable",
      "type": "function"
    },
    {
      "inputs": [],
      "name": "kLast",
      "outputs": [
        {
          "internalType": "uint256",
          "name": "",
          "type": "uint256"
        }
      ],
      "stateMutability": "view",
      "type": "function"
    },
    {
      "inputs": [
        {
          "internalType": "address",
          "name": "to",
          "type": "address"
        }
      ],
      "name": "mint",
      "outputs": [
        {
          "internalType": "uint256",
          "name": "liquidity",
          "type": "uint256"
        }
      ],
      "stateMutability": "nonpayable",
      "type": "function"
    },
    {
      "inputs": [],
      "name": "name",
      "outputs": [
        {
          "internalType": "string",
          "name": "",
          "type": "string"
        }
      ],
      "stateMutability": "view",
      "type": "function"
    },
    {
      "inputs": [],
      "name": "price0CumulativeLast",
      "outputs": [
        {
          "internalType": "uint256",
          "name": "",
          "type": "uint256"
        }
      ],
      "stateMutability": "view",
      "type": "function"
    },
    {
      "inputs": [],
      "name": "price1CumulativeLast",
      "outputs": [
        {
          "internalType": "uint256",
          "name": "",
          "type": "uint256"
        }
      ],
      "stateMutability": "view",
      "type": "function"
    },
    {
      "inputs": [
        {
          "internalType": "address",
          "name": "to",
          "type": "address"
        }
      ],
      "name": "skim",
      "outputs": [],
      "stateMutability": "nonpayable",
      "type": "function"
    },
    {
      "inputs": [
        {
          "internalType": "uint256",
          "name": "amount0Out",
          "type": "uint256"
        },
        {
          "internalType": "uint256",
          "name": "amount1Out",
          "type": "uint256"
        },
        {
          "internalType": "address",
          "name": "to",
          "type": "address"
        },
        {
          "internalType": "bytes",
          "name": "data",
          "type": "bytes"
        }
      ],
      "name": "swap",
      "outputs": [],
      "stateMutability": "nonpayable",
      "type": "function"
    },
    {
      "inputs": [],
      "name": "symbol",
      "outputs": [
        {
          "internalType": "string",
          "name": "",
          "type": "string"
        }
      ],
      "stateMutability": "view",
      "type": "function"
    },
    {
      "inputs": [],
      "name": "sync",
      "outputs": [],
      "stateMutability": "nonpayable",
      "type": "function"
    },
    {
      "inputs": [],
      "name": "token0",
      "outputs": [
        {
          "internalType": "address",
          "name": "",
          "type": "address"
        }
      ],
      "stateMutability": "view",
      "type": "function"
    },
    {
      "inputs": [],
      "name": "token1",
      "outputs": [
        {
          "internalType": "address",
          "name": "",
          "type": "address"
        }
      ],
      "stateMutability": "view",
      "type": "function"
    },
    {
      "inputs": [],
      "name": "totalSupply",
      "outputs": [
        {
          "internalType": "uint256",
          "name": "",
          "type": "uint256"
        }
      ],
      "stateMutability": "view",
      "type": "function"
    },
    {
      "inputs": [
        {
          "internalType": "address",
          "name": "to",
          "type": "address"
        },
        {
          "internalType": "uint256",
          "name": "value",
          "type": "uint256"
        }
      ],
      "name": "transfer",
      "outputs": [
        {
          "internalType": "bool",
          "name": "",
          "type": "bool"
        }
      ],
      "stateMutability": "nonpayable",
      "type": "function"
    },
    {
      "inputs": [
        {
          "internalType": "address",
          "name": "from",
          "type": "address"
        },
        {
          "internalType": "address",
          "name": "to",
          "type": "address"
        },
        {
          "internalType": "uint256",
          "name": "value",
          "type": "uint256"
        }
      ],
      "name": "transferFrom",
      "outputs": [
        {
          "internalType": "bool",
          "name": "",
          "type": "bool"
        }
      ],
      "stateMutability": "nonpayable",
      "type": "function"
    }
  ],
  "bytecode": "0x6080604052600c805460ff191660011790553480156200001e57600080fd5b506040518060400160405280600a8152602001692ab734b9bbb0b8102b1960b11b815250604051806040016040528060068152602001652aa72496ab1960d11b815250816003908162000072919062000141565b50600462000081828262000141565b5050600580546001600160a01b03191633179055506200020d565b634e487b7160e01b600052604160045260246000fd5b600181811c90821680620000c757607f821691505b602082108103620000e857634e487b7160e01b600052602260045260246000fd5b50919050565b601f8211156200013c57600081815260208120601f850160051c81016020861015620001175750805b601f850160051c820191505b81811015620001385782815560010162000123565b5050505b505050565b81516001600160401b038111156200015d576200015d6200009c565b62000175816200016e8454620000b2565b84620000ee565b602080601f831160018114620001ad5760008415620001945750858301515b600019600386901b1c1916600185901b17855562000138565b600085815260208120601f198616915b82811015620001de57888601518255948401946001909101908401620001bd565b5085821015620001fd5787850151600019600388901b60f8161c191681555b5050505050600190811b01905550565b611e6d806200021d6000396000f3fe608060405234801561001057600080fd5b506004361061017d5760003560e01c80636a627842116100e3578063ba9a7a561161008c578063d21220a711610066578063d21220a714610347578063dd62ed3e1461035a578063fff6cae91461039357600080fd5b8063ba9a7a5614610318578063bc25cf7714610321578063c45a01551461033457600080fd5b806389afcb44116100bd57806389afcb44146102d557806395d89b41146102fd578063a9059cbb1461030557600080fd5b80636a6278421461029057806370a08231146102a35780637464fc3d146102cc57600080fd5b806318160ddd11610145578063485cc9551161011f578063485cc9551461026b5780635909c0d51461027e5780635a3d54931461028757600080fd5b806318160ddd1461023757806323b872dd14610249578063313ce5671461025c57600080fd5b8063022c0d9f1461018257806306fdde03146101975780630902f1ac146101b5578063095ea7b3146101e95780630dfe16811461020c575b600080fd5b610195610190366004611b54565b61039b565b005b61019f6109be565b6040516101ac9190611be8565b60405180910390f35b6101bd610a50565b604080516001600160701b03948516815293909216602084015263ffffffff16908201526060016101ac565b6101fc6101f7366004611c36565b610a7a565b60405190151581526020016101ac565b60065461021f906001600160a01b031681565b6040516001600160a01b0390911681526020016101ac565b6002545b6040519081526020016101ac565b6101fc610257366004611c60565b610a94565b604051601281526020016101ac565b610195610279366004611c9c565b610ab8565b61023b60095481565b61023b600a5481565b61023b61029e366004611ccf565b610b4d565b61023b6102b1366004611ccf565b6001600160a01b031660009081526020819052604090205490565b61023b600b5481565b6102e86102e3366004611ccf565b610e1e565b604080519283526020830191909152016101ac565b61019f611253565b6101fc610313366004611c36565b611262565b61023b6103e881565b61019561032f366004611ccf565b611270565b60055461021f906001600160a01b031681565b60075461021f906001600160a01b031681565b61023b610368366004611c9c565b6001600160a01b03918216600090815260016020908152604080832093909416825291909152205490565b6101956114d8565b600c5460ff166103e65760405162461bcd60e51b8152602060048201526011602482015270155b9a5cddd85c158c8e881313d0d2d151607a1b60448201526064015b60405180910390fd5b600c805460ff19169055841515806103fe5750600084115b6104585760405162461bcd60e51b815260206004820152602560248201527f556e697377617056323a20494e53554646494349454e545f4f55545055545f416044820152641353d5539560da1b60648201526084016103dd565b600080610463610a50565b5091509150816001600160701b0316871080156104885750806001600160701b031686105b6104de5760405162461bcd60e51b815260206004820152602160248201527f556e697377617056323a20494e53554646494349454e545f4c495155494449546044820152605960f81b60648201526084016103dd565b60065460075460009182916001600160a01b0391821691908116908916821480159061051c5750806001600160a01b0316896001600160a01b031614155b6105685760405162461bcd60e51b815260206004820152601560248201527f556e697377617056323a20494e56414c49445f544f000000000000000000000060448201526064016103dd565b8a156105e35760405163a9059cbb60e01b81526001600160a01b038a81166004830152602482018d905283169063a9059cbb906044016020604051808303816000875af11580156105bd573d6000803e3d6000fd5b505050506040513d601f19601f820116820180604052508101906105e19190611cea565b505b891561065e5760405163a9059cbb60e01b81526001600160a01b038a81166004830152602482018c905282169063a9059cbb906044016020604051808303816000875af1158015610638573d6000803e3d6000fd5b505050506040513d601f19601f8201168201806040525081019061065c9190611cea565b505b86156106cb576040516304347a1760e21b81526001600160a01b038a16906310d1e85c906106989033908f908f908e908e90600401611d0c565b600060405180830381600087803b1580156106b257600080fd5b505af11580156106c6573d6000803e3d6000fd5b505050505b6040516370a0823160e01b81523060048201526001600160a01b038316906370a0823190602401602060405180830381865afa15801561070f573d6000803e3d6000fd5b505050506040513d601f19601f820116820180604052508101906107339190611d59565b6040516370a0823160e01b81523060048201529094506001600160a01b038216906370a0823190602401602060405180830381865afa15801561077a573d6000803e3d6000fd5b505050506040513d601f19601f8201168201806040525081019061079e9190611d59565b92505050600089856001600160701b03166107b99190611d88565b83116107c65760006107e3565b6107d98a6001600160701b038716611d88565b6107e39084611d88565b905060006107fa8a6001600160701b038716611d88565b8311610807576000610824565b61081a8a6001600160701b038716611d88565b6108249084611d88565b905060008211806108355750600081115b61088d5760405162461bcd60e51b8152602060048201526024808201527f556e697377617056323a20494e53554646494349454e545f494e5055545f414d60448201526313d5539560e21b60648201526084016103dd565b600061089a836003611d9b565b6108a6866103e8611d9b565b6108b09190611d88565b905060006108bf836003611d9b565b6108cb866103e8611d9b565b6108d59190611d88565b90506108ed6001600160701b03808916908a16611d9b565b6108fa90620f4240611d9b565b6109048284611d9b565b10156109415760405162461bcd60e51b815260206004820152600c60248201526b556e697377617056323a204b60a01b60448201526064016103dd565b505061094f8484888861162d565b60408051838152602081018390529081018c9052606081018b90526001600160a01b038a169033907fd78ad95fa46c994b6551d0da85fc275fe613ce37657fb8d5e3d130840159d8229060800160405180910390a35050600c805460ff19166001179055505050505050505050565b6060600380546109cd90611db2565b80601f01602080910402602001604051908101604052809291908181526020018280546109f990611db2565b8015610a465780601f10610a1b57610100808354040283529160200191610a46565b820191906000526020600020905b815481529060010190602001808311610a2957829003601f168201915b5050505050905090565b6008546001600160701b0380821692600160701b830490911691600160e01b900463ffffffff1690565b600033610a88818585611757565b60019150505b92915050565b600033610aa2858285611769565b610aad8585856117e7565b506001949350505050565b6005546001600160a01b03163314610b125760405162461bcd60e51b815260206004820152601460248201527f556e697377617056323a20464f5242494444454e00000000000000000000000060448201526064016103dd565b600680546001600160a01b0393841673ffffffffffffffffffffffffffffffffffffffff199182161790915560078054929093169116179055565b600c5460009060ff16610b965760405162461bcd60e51b8152602060048201526011602482015270155b9a5cddd85c158c8e881313d0d2d151607a1b60448201526064016103dd565b600c805460ff19169055600080610bab610a50565b506006546040516370a0823160e01b81523060048201529294509092506000916001600160a01b03909116906370a0823190602401602060405180830381865afa158015610bfd573d6000803e3d6000fd5b505050506040513d601f19601f82011682018060405250810190610c219190611d59565b6007546040516370a0823160e01b81523060048201529192506000916001600160a01b03909116906370a0823190602401602060405180830381865afa158015610c6f573d6000803e3d6000fd5b505050506040513d601f19601f82011682018060405250810190610c939190611d59565b90506000610caa6001600160701b03861684611d88565b90506000610cc16001600160701b03861684611d88565b90506000610cce60025490565b905080600003610d0b576103e8610ced610ce88486611d9b565b611846565b610cf79190611d88565b9750610d0660016103e86118b6565b610d52565b610d4f6001600160701b038816610d228386611d9b565b610d2c9190611dfc565b6001600160701b038816610d408486611d9b565b610d4a9190611dfc565b6118f0565b97505b60008811610db35760405162461bcd60e51b815260206004820152602860248201527f556e697377617056323a20494e53554646494349454e545f4c495155494449546044820152671657d3525395115160c21b60648201526084016103dd565b610dbd89896118b6565b610dc98585898961162d565b604080518481526020810184905233917f4c209b5fc8ad50758f13e2e1088ba56a560dff690a1c6fef26394f4c03821c4f910160405180910390a25050600c805460ff19166001179055509395945050505050565b600c54600090819060ff16610e695760405162461bcd60e51b8152602060048201526011602482015270155b9a5cddd85c158c8e881313d0d2d151607a1b60448201526064016103dd565b600c805460ff19169055600080610e7e610a50565b506006546007546040516370a0823160e01b81523060048201529395509193506001600160a01b039081169291169060009083906370a0823190602401602060405180830381865afa158015610ed8573d6000803e3d6000fd5b505050506040513d601f19601f82011682018060405250810190610efc9190611d59565b6040516370a0823160e01b81523060048201529091506000906001600160a01b038416906370a0823190602401602060405180830381865afa158015610f46573d6000803e3d6000fd5b505050506040513d601f19601f82011682018060405250810190610f6a9190611d59565b306000908152602081905260409020546002549192509080610f8c8584611d9b565b610f969190611dfc565b995080610fa38484611d9b565b610fad9190611dfc565b985060008a118015610fbf5750600089115b61101c5760405162461bcd60e51b815260206004820152602860248201527f556e697377617056323a20494e53554646494349454e545f4c495155494449546044820152671657d0955493915160c21b60648201526084016103dd565b6110263083611908565b60405163a9059cbb60e01b81526001600160a01b038c81166004830152602482018c905287169063a9059cbb906044016020604051808303816000875af1158015611075573d6000803e3d6000fd5b505050506040513d601f19601f820116820180604052508101906110999190611cea565b5060405163a9059cbb60e01b81526001600160a01b038c81166004830152602482018b905286169063a9059cbb906044016020604051808303816000875af11580156110e9573d6000803e3d6000fd5b505050506040513d601f19601f8201168201806040525081019061110d9190611cea565b506040516370a0823160e01b81523060048201526001600160a01b038716906370a0823190602401602060405180830381865afa158015611152573d6000803e3d6000fd5b505050506040513d601f19601f820116820180604052508101906111769190611d59565b6040516370a0823160e01b81523060048201529094506001600160a01b038616906370a0823190602401602060405180830381865afa1580156111bd573d6000803e3d6000fd5b505050506040513d601f19601f820116820180604052508101906111e19190611d59565b92506111ef84848a8a61162d565b604080518b8152602081018b90526001600160a01b038d169133917fdccd412f0b1252819cb1fd330b93224ca42612892bb3f4f789976e6d81936496910160405180910390a35050600c805460ff1916600117905550959794965093945050505050565b6060600480546109cd90611db2565b600033610a888185856117e7565b600c5460ff166112b65760405162461bcd60e51b8152602060048201526011602482015270155b9a5cddd85c158c8e881313d0d2d151607a1b60448201526064016103dd565b600c805460ff191690556006546007546008546040516370a0823160e01b81523060048201526001600160a01b039384169390921691839163a9059cbb9186916001600160701b03169084906370a0823190602401602060405180830381865afa158015611328573d6000803e3d6000fd5b505050506040513d601f19601f8201168201806040525081019061134c9190611d59565b6113569190611d88565b6040516001600160e01b031960e085901b1681526001600160a01b03909216600483015260248201526044016020604051808303816000875af11580156113a1573d6000803e3d6000fd5b505050506040513d601f19601f820116820180604052508101906113c59190611cea565b506008546040516370a0823160e01b81523060048201526001600160a01b0383169163a9059cbb918691600160701b90046001600160701b03169084906370a0823190602401602060405180830381865afa158015611428573d6000803e3d6000fd5b505050506040513d601f19601f8201168201806040525081019061144c9190611d59565b6114569190611d88565b6040516001600160e01b031960e085901b1681526001600160a01b03909216600483015260248201526044016020604051808303816000875af11580156114a1573d6000803e3d6000fd5b505050506040513d601f19601f820116820180604052508101906114c59190611cea565b5050600c805460ff191660011790555050565b600c5460ff1661151e5760405162461bcd60e51b8152602060048201526011602482015270155b9a5cddd85c158c8e881313d0d2d151607a1b60448201526064016103dd565b600c805460ff191690556006546040516370a0823160e01b815230600482015261161e916001600160a01b0316906370a0823190602401602060405180830381865afa158015611572573d6000803e3d6000fd5b505050506040513d601f19601f820116820180604052508101906115969190611d59565b6007546040516370a0823160e01b81523060048201526001600160a01b03909116906370a0823190602401602060405180830381865afa1580156115de573d6000803e3d6000fd5b505050506040513d601f19601f820116820180604052508101906116029190611d59565b6008546001600160701b0380821691600160701b90041661162d565b600c805460ff19166001179055565b6001600160701b03841180159061164b57506001600160701b038311155b6116975760405162461bcd60e51b815260206004820152601360248201527f556e697377617056323a204f564552464c4f570000000000000000000000000060448201526064016103dd565b60006116a864010000000042611e10565b6008805463ffffffff8316600160e01b027bffffffffffffffffffffffffffffffffffffffffffffffffffffffff6001600160701b03898116600160701b9081026001600160e01b03199095168c83161794909417918216831794859055604080519382169282169290921783529290930490911660208201529192507f1c411e9a96e071241c2f21f7726b17ae89e3cab4c78be50e062b03a9fffbbad1910160405180910390a15050505050565b611764838383600161193e565b505050565b6001600160a01b0383811660009081526001602090815260408083209386168352929052205460001981146117e157818110156117d257604051637dc7a0d960e11b81526001600160a01b038416600482015260248101829052604481018390526064016103dd565b6117e18484848403600061193e565b50505050565b6001600160a01b03831661181157604051634b637e8f60e11b8152600060048201526024016103dd565b6001600160a01b03821661183b5760405163ec442f0560e01b8152600060048201526024016103dd565b611764838383611a13565b600060038211156118a75750806000611860600283611dfc565b61186b906001611e24565b90505b818110156118a1579050806002816118868186611dfc565b6118909190611e24565b61189a9190611dfc565b905061186e565b50919050565b81156118b1575060015b919050565b6001600160a01b0382166118e05760405163ec442f0560e01b8152600060048201526024016103dd565b6118ec60008383611a13565b5050565b60008183106118ff5781611901565b825b9392505050565b6001600160a01b03821661193257604051634b637e8f60e11b8152600060048201526024016103dd565b6118ec82600083611a13565b6001600160a01b0384166119685760405163e602df0560e01b8152600060048201526024016103dd565b6001600160a01b03831661199257604051634a1406b160e11b8152600060048201526024016103dd565b6001600160a01b03808516600090815260016020908152604080832093871683529290522082905580156117e157826001600160a01b0316846001600160a01b03167f8c5be1e5ebec7d5bd14f71427d1e84f3dd0314c0f7b2291e5b200ac8c7c3b92584604051611a0591815260200190565b60405180910390a350505050565b6001600160a01b038316611a3e578060026000828254611a339190611e24565b90915550611ab09050565b6001600160a01b03831660009081526020819052604090205481811015611a915760405163391434e360e21b81526001600160a01b038516600482015260248101829052604481018390526064016103dd565b6001600160a01b03841660009081526020819052604090209082900390555b6001600160a01b038216611acc57600280548290039055611aeb565b6001600160a01b03821660009081526020819052604090208054820190555b816001600160a01b0316836001600160a01b03167fddf252ad1be2c89b69c2b068fc378daa952ba7f163c4a11628f55a4df523b3ef83604051611b3091815260200190565b60405180910390a3505050565b80356001600160a01b03811681146118b157600080fd5b600080600080600060808688031215611b6c57600080fd5b8535945060208601359350611b8360408701611b3d565b9250606086013567ffffffffffffffff80821115611ba057600080fd5b818801915088601f830112611bb457600080fd5b813581811115611bc357600080fd5b896020828501011115611bd557600080fd5b9699959850939650602001949392505050565b600060208083528351808285015260005b81811015611c1557858101830151858201604001528201611bf9565b506000604082860101526040601f19601f8301168501019250505092915050565b60008060408385031215611c4957600080fd5b611c5283611b3d565b946020939093013593505050565b600080600060608486031215611c7557600080fd5b611c7e84611b3d565b9250611c8c60208501611b3d565b9150604084013590509250925092565b60008060408385031215611caf57600080fd5b611cb883611b3d565b9150611cc660208401611b3d565b90509250929050565b600060208284031215611ce157600080fd5b61190182611b3d565b600060208284031215611cfc57600080fd5b8151801515811461190157600080fd5b6001600160a01b038616815284602082015283604082015260806060820152816080820152818360a0830137600081830160a090810191909152601f909201601f19160101949350505050565b600060208284031215611d6b57600080fd5b5051919050565b634e487b7160e01b600052601160045260246000fd5b81810381811115610a8e57610a8e611d72565b8082028115828204841417610a8e57610a8e611d72565b600181811c90821680611dc657607f821691505b6020821081036118a157634e487b7160e01b600052602260045260246000fd5b634e487b7160e01b600052601260045260246000fd5b600082611e0b57611e0b611de6565b500490565b600082611e1f57611e1f611de6565b500690565b80820180821115610a8e57610a8e611d7256fea2646970667358221220317f839dabd5042503270184310ef706dd54bc26b91b44ed865222dead0da89f64736f6c63430008140033",
  "linkReferences": {},
  "deployedLinkReferences": {}
}