{
  "_format": "hh-sol-artifact-1",
  "contractName": "UniswapV2Pair",
  "sourceName": "contracts/UniswapV2Pair.sol",
  "abi": [
    {
      "inputs": [],
      "stateMutability": "nonpayable",
      "type": "constructor"
    },
    {
      "inputs": [
        {
          "internalType": "address",
          "name": "spender",
          "type": "address"
        },
        {
          "internalType": "uint256",
          "name": "allowance",
          "type": "uint256"
        },
        {
          "internalType": "uint256",
          "name": "needed",
          "type": "uint256"
        }
      ],
      "name": "ERC20InsufficientAllowance",
      "type": "error"
    },
    {
      "inputs": [
        {
          "internalType": "address",
          "name": "sender",
          "type": "address"
        },
        {
          "internalType": "uint256",
          "name": "balance",
          "type": "uint256"
        },
        {
          "internalType": "uint256",
          "name": "needed",
          "type": "uint256"
        }
      ],
      "name": "ERC20InsufficientBalance",
      "type": "error"
    },
    {
      "inputs": [
        {
          "internalType": "address",
          "name": "approver",
          "type": "address"
        }
      ],
      "name": "ERC20InvalidApprover",
      "type": "error"
    },
    {
      "inputs": [
        {
          "internalType": "address",
          "name": "receiver",
          "type": "address"
        }
      ],
      "name": "ERC20InvalidReceiver",
      "type": "error"
    },
    {
      "inputs": [
        {
          "internalType": "address",
          "name": "sender",
          "type": "address"
        }
      ],
      "name": "ERC20InvalidSender",
      "type": "error"
    },
    {
      "inputs": [
        {
          "internalType": "address",
          "name": "spender",
          "type": "address"
        }
      ],
      "name": "ERC20InvalidSpender",
      "type": "error"
    },
    {
      "anonymous": false,
      "inputs": [
        {
          "indexed": true,
          "internalType": "address",
          "name": "owner",
          "type": "address"
        },
        {
          "indexed": true,
          "internalType": "address",
          "name": "spender",
          "type": "address"
        },
        {
          "indexed": false,
          "internalType": "uint256",
          "name": "value",
          "type": "uint256"
        }
      ],
      "name": "Approval",
      "type": "event"
    },
    {
      "anonymous": false,
      "inputs": [
        {
          "indexed": true,
          "internalType": "address",
          "name": "sender",
          "type": "address"
        },
        {
          "indexed": false,
          "internalType": "uint256",
          "name": "amount0",
          "type": "uint256"
        },
        {
          "indexed": false,
          "internalType": "uint256",
          "name": "amount1",
          "type": "uint256"
        },
        {
          "indexed": true,
          "internalType": "address",
          "name": "to",
          "type": "address"
        }
      ],
      "name": "Burn",
      "type": "event"
    },
    {
      "anonymous": false,
      "inputs": [
        {
          "indexed": true,
          "internalType": "address",
          "name": "sender",
          "type": "address"
        },
        {
          "indexed": false,
          "internalType": "uint256",
          "name": "amount0",
          "type": "uint256"
        },
        {
          "indexed": false,
          "internalType": "uint256",
          "name": "amount1",
          "type": "uint256"
        }
      ],
      "name": "Mint",
      "type": "event"
    },
    {
      "anonymous": false,
      "inputs": [
        {
          "indexed": true,
          "internalType": "address",
          "name": "sender",
          "type": "address"
        },
        {
          "indexed": false,
          "internalType": "uint256",
          "name": "amount0In",
          "type": "uint256"
        },
        {
          "indexed": false,
          "internalType": "uint256",
          "name": "amount1In",
          "type": "uint256"
        },
        {
          "indexed": false,
          "internalType": "uint256",
          "name": "amount0Out",
          "type": "uint256"
        },
        {
          "indexed": false,
          "internalType": "uint256",
          "name": "amount1Out",
          "type": "uint256"
        },
        {
          "indexed": true,
          "internalType": "address",
          "name": "to",
          "type": "address"
        }
      ],
      "name": "Swap",
      "type": "event"
    },
    {
      "anonymous": false,
      "inputs": [
        {
          "indexed": false,
          "internalType": "uint256",
          "name": "reserve0",
          "type": "uint256"
        },
        {
          "indexed": false,
          "internalType": "uint256",
          "name": "reserve1",
          "type": "uint256"
        }
      ],
      "name": "Sync",
      "type": "event"
    },
    {
      "anonymous": false,
      "inputs": [
        {
          "indexed": true,
          "internalType": "address",
          "name": "from",
          "type": "address"
        },
        {
          "indexed": true,
          "internalType": "address",
          "name": "to",
          "type": "address"
        },
        {
          "indexed": false,
          "internalType": "uint256",
          "name": "value",
          "type": "uint256"
        }
      ],
      "name": "Transfer",
      "type": "event"
    },
    {
      "inputs": [],
      "name": "MINIMUM_LIQUIDITY",
      "outputs": [
        {
          "internalType": "uint256",
          "name": "",
          "type": "uint256"
        }
      ],
      "stateMutability": "view",
      "type": "function"
    },
    {
      "inputs": [
        {
          "internalType": "address",
          "name": "owner",
          "type": "address"
        },
        {
          "internalType": "address",
          "name": "spender",
          "type": "address"
        }
      ],
      "name": "allowance",
      "outputs": [
        {
          "internalType": "uint256",
          "name": "",
          "type": "uint256"
        }
      ],
      "stateMutability": "view",
      "type": "function"
    },
    {
      "inputs": [
        {
          "internalType": "address",
          "name": "spender",
          "type": "address"
        },
        {
          "internalType": "uint256",
          "name": "value",
          "type": "uint256"
        }
      ],
      "name": "approve",
      "outputs": [
        {
          "internalType": "bool",
          "name": "",
          "type": "bool"
        }
      ],
      "stateMutability": "nonpayable",
      "type": "function"
    },
    {
      "inputs": [
        {
          "internalType": "address",
          "name": "account",
          "type": "address"
        }
      ],
      "name": "balanceOf",
      "outputs": [
        {
          "internalType": "uint256",
          "name": "",
          "type": "uint256"
        }
      ],
      "stateMutability": "view",
      "type": "function"
    },
    {
      "inputs": [
        {
          "internalType": "address",
          "name": "to",
          "type": "address"
        }
      ],
      "name": "burn",
      "outputs": [
        {
          "internalType": "uint256",
          "name": "amount0",
          "type": "uint256"
        },
        {
          "internalType": "uint256",
          "name": "amount1",
          "type": "uint256"
        }
      ],
      "stateMutability": "nonpayable",
      "type": "function"
    },
    {
      "inputs": [],
      "name": "decimals",
      "outputs": [
        {
          "internalType": "uint8",
          "name": "",
          "type": "uint8"
        }
      ],
      "stateMutability": "view",
      "type": "function"
    },
    {
      "inputs": [],
      "name": "factory",
      "outputs": [
        {
          "internalType": "address",
          "name": "",
          "type": "address"
        }
      ],
      "stateMutability": "view",
      "type": "function"
    },
    {
      "inputs": [],
      "name": "getReserves",
      "outputs": [
        {
          "internalType": "uint256",
          "name": "_reserve0",
          "type": "uint256"
        },
        {
          "internalType": "uint256",
          "name": "_reserve1",
          "type": "uint256"
        },
        {
          "internalType": "uint32",
          "name": "_blockTimestampLast",
          "type": "uint32"
        }
      ],
      "stateMutability": "view",
      "type": "function"
    },
    {
      "inputs": [
        {
          "internalType": "address",
          "name": "_token0",
          "type": "address"
        },
        {
          "internalType": "address",
          "name": "_token1",
          "type": "address"
        }
      ],
      "name": "initialize",
      "outputs": [],
      "stateMutability": "nonpayable",
      "type": "function"
    },
    {
      "inputs": [],
      "name": "kLast",
      "outputs": [
        {
          "internalType": "uint256",
          "name": "",
          "type": "uint256"
        }
      ],
      "stateMutability": "view",
      "type": "function"
    },
    {
      "inputs": [
        {
          "internalType": "address",
          "name": "to",
          "type": "address"
        }
      ],
      "name": "mint",
      "outputs": [
        {
          "internalType": "uint256",
          "name": "liquidity",
          "type": "uint256"
        }
      ],
      "stateMutability": "nonpayable",
      "type": "function"
    },
    {
      "inputs": [],
      "name": "name",
      "outputs": [
        {
          "internalType": "string",
          "name": "",
          "type": "string"
        }
      ],
      "stateMutability": "view",
      "type": "function"
    },
    {
      "inputs": [],
      "name": "price0CumulativeLast",
      "outputs": [
        {
          "internalType": "uint256",
          "name": "",
          "type": "uint256"
        }
      ],
      "stateMutability": "view",
      "type": "function"
    },
    {
      "inputs": [],
      "name": "price1CumulativeLast",
      "outputs": [
        {
          "internalType": "uint256",
          "name": "",
          "type": "uint256"
        }
      ],
      "stateMutability": "view",
      "type": "function"
    },
    {
      "inputs": [
        {
          "internalType": "address",
          "name": "to",
          "type": "address"
        }
      ],
      "name": "skim",
      "outputs": [],
      "stateMutability": "nonpayable",
      "type": "function"
    },
    {
      "inputs": [
        {
          "internalType": "uint256",
          "name": "amount0Out",
          "type": "uint256"
        },
        {
          "internalType": "uint256",
          "name": "amount1Out",
          "type": "uint256"
        },
        {
          "internalType": "address",
          "name": "to",
          "type": "address"
        },
        {
          "internalType": "bytes",
          "name": "data",
          "type": "bytes"
        }
      ],
      "name": "swap",
      "outputs": [],
      "stateMutability": "nonpayable",
      "type": "function"
    },
    {
      "inputs": [],
      "name": "symbol",
      "outputs": [
        {
          "internalType": "string",
          "name": "",
          "type": "string"
        }
      ],
      "stateMutability": "view",
      "type": "function"
    },
    {
      "inputs": [],
      "name": "sync",
      "outputs": [],
      "stateMutability": "nonpayable",
      "type": "function"
    },
    {
      "inputs": [],
      "name": "token0",
      "outputs": [
        {
          "internalType": "address",
          "name": "",
          "type": "address"
        }
      ],
      "stateMutability": "view",
      "type": "function"
    },
    {
      "inputs": [],
      "name": "token1",
      "outputs": [
        {
          "internalType": "address",
          "name": "",
          "type": "address"
        }
      ],
      "stateMutability": "view",
      "type": "function"
    },
    {
      "inputs": [],
      "name": "totalSupply",
      "outputs": [
        {
          "internalType": "uint256",
          "name": "",
          "type": "uint256"
        }
      ],
      "stateMutability": "view",
      "type": "function"
    },
    {
      "inputs": [
        {
          "internalType": "address",
          "name": "to",
          "type": "address"
        },
        {
          "internalType": "uint256",
          "name": "value",
          "type": "uint256"
        }
      ],
      "name": "transfer",
      "outputs": [
        {
          "internalType": "bool",
          "name": "",
          "type": "bool"
        }
      ],
      "stateMutability": "nonpayable",
      "type": "function"
    },
    {
      "inputs": [
        {
          "internalType": "address",
          "name": "from",
          "type": "address"
        },
        {
          "internalType": "address",
          "name": "to",
          "type": "address"
        },
        {
          "internalType": "uint256",
          "name": "value",
          "type": "uint256"
        }
      ],
      "name": "transferFrom",
      "outputs": [
        {
          "internalType": "bool",
          "name": "",
          "type": "bool"
        }
      ],
      "stateMutability": "nonpayable",
      "type": "function"
    }
  ],
  "bytecode": "0x6080604052600e805460ff191660011790553480156200001e57600080fd5b506040518060400160405280600a8152602001692ab734b9bbb0b8102b1960b11b815250604051806040016040528060068152602001652aa72496ab1960d11b815250816003908162000072919062000141565b50600462000081828262000141565b5050600580546001600160a01b03191633179055506200020d565b634e487b7160e01b600052604160045260246000fd5b600181811c90821680620000c757607f821691505b602082108103620000e857634e487b7160e01b600052602260045260246000fd5b50919050565b601f8211156200013c57600081815260208120601f850160051c81016020861015620001175750805b601f850160051c820191505b81811015620001385782815560010162000123565b5050505b505050565b81516001600160401b038111156200015d576200015d6200009c565b62000175816200016e8454620000b2565b84620000ee565b602080601f831160018114620001ad5760008415620001945750858301515b600019600386901b1c1916600185901b17855562000138565b600085815260208120601f198616915b82811015620001de57888601518255948401946001909101908401620001bd565b5085821015620001fd5787850151600019600388901b60f8161c191681555b5050505050600190811b01905550565b611cdf806200021d6000396000f3fe608060405234801561001057600080fd5b506004361061017d5760003560e01c80636a627842116100e3578063ba9a7a561161008c578063d21220a711610066578063d21220a71461033d578063dd62ed3e14610350578063fff6cae91461038957600080fd5b8063ba9a7a561461030e578063bc25cf7714610317578063c45a01551461032a57600080fd5b806389afcb44116100bd57806389afcb44146102cb57806395d89b41146102f3578063a9059cbb146102fb57600080fd5b80636a6278421461028657806370a08231146102995780637464fc3d146102c257600080fd5b806318160ddd11610145578063485cc9551161011f578063485cc955146102615780635909c0d5146102745780635a3d54931461027d57600080fd5b806318160ddd1461022d57806323b872dd1461023f578063313ce5671461025257600080fd5b8063022c0d9f1461018257806306fdde03146101975780630902f1ac146101b5578063095ea7b3146101df5780630dfe168114610202575b600080fd5b6101956101903660046119c6565b610391565b005b61019f610968565b6040516101ac9190611a5a565b60405180910390f35b600854600954600a5460408051938452602084019290925263ffffffff16908201526060016101ac565b6101f26101ed366004611aa8565b6109fa565b60405190151581526020016101ac565b600654610215906001600160a01b031681565b6040516001600160a01b0390911681526020016101ac565b6002545b6040519081526020016101ac565b6101f261024d366004611ad2565b610a14565b604051601281526020016101ac565b61019561026f366004611b0e565b610a38565b610231600b5481565b610231600c5481565b610231610294366004611b41565b610acd565b6102316102a7366004611b41565b6001600160a01b031660009081526020819052604090205490565b610231600d5481565b6102de6102d9366004611b41565b610d73565b604080519283526020830191909152016101ac565b61019f6111a5565b6101f2610309366004611aa8565b6111b4565b6102316103e881565b610195610325366004611b41565b6111c2565b600554610215906001600160a01b031681565b600754610215906001600160a01b031681565b61023161035e366004611b0e565b6001600160a01b03918216600090815260016020908152604080832093909416825291909152205490565b610195611411565b600e5460ff166103dc5760405162461bcd60e51b8152602060048201526011602482015270155b9a5cddd85c158c8e881313d0d2d151607a1b60448201526064015b60405180910390fd5b600e805460ff19169055841515806103f45750600084115b61044e5760405162461bcd60e51b815260206004820152602560248201527f556e697377617056323a20494e53554646494349454e545f4f55545055545f416044820152641353d5539560da1b60648201526084016103d3565b600854600954818710801561046257508086105b6104b85760405162461bcd60e51b815260206004820152602160248201527f556e697377617056323a20494e53554646494349454e545f4c495155494449546044820152605960f81b60648201526084016103d3565b60065460075460009182916001600160a01b039182169190811690891682148015906104f65750806001600160a01b0316896001600160a01b031614155b6105425760405162461bcd60e51b815260206004820152601560248201527f556e697377617056323a20494e56414c49445f544f000000000000000000000060448201526064016103d3565b8a156105bd5760405163a9059cbb60e01b81526001600160a01b038a81166004830152602482018d905283169063a9059cbb906044016020604051808303816000875af1158015610597573d6000803e3d6000fd5b505050506040513d601f19601f820116820180604052508101906105bb9190611b5c565b505b89156106385760405163a9059cbb60e01b81526001600160a01b038a81166004830152602482018c905282169063a9059cbb906044016020604051808303816000875af1158015610612573d6000803e3d6000fd5b505050506040513d601f19601f820116820180604052508101906106369190611b5c565b505b86156106a5576040516304347a1760e21b81526001600160a01b038a16906310d1e85c906106729033908f908f908e908e90600401611b7e565b600060405180830381600087803b15801561068c57600080fd5b505af11580156106a0573d6000803e3d6000fd5b505050505b6040516370a0823160e01b81523060048201526001600160a01b038316906370a0823190602401602060405180830381865afa1580156106e9573d6000803e3d6000fd5b505050506040513d601f19601f8201168201806040525081019061070d9190611bcb565b6040516370a0823160e01b81523060048201529094506001600160a01b038216906370a0823190602401602060405180830381865afa158015610754573d6000803e3d6000fd5b505050506040513d601f19601f820116820180604052508101906107789190611bcb565b925050506000898561078a9190611bfa565b83116107975760006107ab565b6107a18a86611bfa565b6107ab9084611bfa565b905060006107b98a86611bfa565b83116107c65760006107da565b6107d08a86611bfa565b6107da9084611bfa565b905060008211806107eb5750600081115b6108435760405162461bcd60e51b8152602060048201526024808201527f556e697377617056323a20494e53554646494349454e545f494e5055545f414d60448201526313d5539560e21b60648201526084016103d3565b6000610850836003611c0d565b61085c866103e8611c0d565b6108669190611bfa565b90506000610875836003611c0d565b610881866103e8611c0d565b61088b9190611bfa565b90506108978789611c0d565b6108a490620f4240611c0d565b6108ae8284611c0d565b10156108eb5760405162461bcd60e51b815260206004820152600c60248201526b556e697377617056323a204b60a01b60448201526064016103d3565b50506108f984848888611555565b60408051838152602081018390529081018c9052606081018b90526001600160a01b038a169033907fd78ad95fa46c994b6551d0da85fc275fe613ce37657fb8d5e3d130840159d8229060800160405180910390a35050600e805460ff19166001179055505050505050505050565b60606003805461097790611c24565b80601f01602080910402602001604051908101604052809291908181526020018280546109a390611c24565b80156109f05780601f106109c5576101008083540402835291602001916109f0565b820191906000526020600020905b8154815290600101906020018083116109d357829003601f168201915b5050505050905090565b600033610a088185856115c8565b60019150505b92915050565b600033610a228582856115da565b610a2d858585611659565b506001949350505050565b6005546001600160a01b03163314610a925760405162461bcd60e51b815260206004820152601460248201527f556e697377617056323a20464f5242494444454e00000000000000000000000060448201526064016103d3565b600680546001600160a01b0393841673ffffffffffffffffffffffffffffffffffffffff199182161790915560078054929093169116179055565b600e5460009060ff16610b165760405162461bcd60e51b8152602060048201526011602482015270155b9a5cddd85c158c8e881313d0d2d151607a1b60448201526064016103d3565b600e805460ff19169055600854600954600654604080516370a0823160e01b815230600482015290516000926001600160a01b0316916370a082319160248083019260209291908290030181865afa158015610b76573d6000803e3d6000fd5b505050506040513d601f19601f82011682018060405250810190610b9a9190611bcb565b6007546040516370a0823160e01b81523060048201529192506000916001600160a01b03909116906370a0823190602401602060405180830381865afa158015610be8573d6000803e3d6000fd5b505050506040513d601f19601f82011682018060405250810190610c0c9190611bcb565b90506000610c1a8584611bfa565b90506000610c288584611bfa565b90506000610c3560025490565b905080600003610c72576103e8610c54610c4f8486611c0d565b6116b8565b610c5e9190611bfa565b9750610c6d60016103e8611728565b610ca7565b610ca487610c808386611c0d565b610c8a9190611c6e565b87610c958486611c0d565b610c9f9190611c6e565b611762565b97505b60008811610d085760405162461bcd60e51b815260206004820152602860248201527f556e697377617056323a20494e53554646494349454e545f4c495155494449546044820152671657d3525395115160c21b60648201526084016103d3565b610d128989611728565b610d1e85858989611555565b604080518481526020810184905233917f4c209b5fc8ad50758f13e2e1088ba56a560dff690a1c6fef26394f4c03821c4f910160405180910390a25050600e805460ff19166001179055509395945050505050565b600e54600090819060ff16610dbe5760405162461bcd60e51b8152602060048201526011602482015270155b9a5cddd85c158c8e881313d0d2d151607a1b60448201526064016103d3565b600e805460ff19169055600854600954600654600754604080516370a0823160e01b815230600482015290516001600160a01b03938416939092169160009184916370a08231916024808201926020929091908290030181865afa158015610e2a573d6000803e3d6000fd5b505050506040513d601f19601f82011682018060405250810190610e4e9190611bcb565b6040516370a0823160e01b81523060048201529091506000906001600160a01b038416906370a0823190602401602060405180830381865afa158015610e98573d6000803e3d6000fd5b505050506040513d601f19601f82011682018060405250810190610ebc9190611bcb565b306000908152602081905260409020546002549192509080610ede8584611c0d565b610ee89190611c6e565b995080610ef58484611c0d565b610eff9190611c6e565b985060008a118015610f115750600089115b610f6e5760405162461bcd60e51b815260206004820152602860248201527f556e697377617056323a20494e53554646494349454e545f4c495155494449546044820152671657d0955493915160c21b60648201526084016103d3565b610f78308361177a565b60405163a9059cbb60e01b81526001600160a01b038c81166004830152602482018c905287169063a9059cbb906044016020604051808303816000875af1158015610fc7573d6000803e3d6000fd5b505050506040513d601f19601f82011682018060405250810190610feb9190611b5c565b5060405163a9059cbb60e01b81526001600160a01b038c81166004830152602482018b905286169063a9059cbb906044016020604051808303816000875af115801561103b573d6000803e3d6000fd5b505050506040513d601f19601f8201168201806040525081019061105f9190611b5c565b506040516370a0823160e01b81523060048201526001600160a01b038716906370a0823190602401602060405180830381865afa1580156110a4573d6000803e3d6000fd5b505050506040513d601f19601f820116820180604052508101906110c89190611bcb565b6040516370a0823160e01b81523060048201529094506001600160a01b038616906370a0823190602401602060405180830381865afa15801561110f573d6000803e3d6000fd5b505050506040513d601f19601f820116820180604052508101906111339190611bcb565b925061114184848a8a611555565b604080518b8152602081018b90526001600160a01b038d169133917fdccd412f0b1252819cb1fd330b93224ca42612892bb3f4f789976e6d81936496910160405180910390a35050600e805460ff1916600117905550959794965093945050505050565b60606004805461097790611c24565b600033610a08818585611659565b600e5460ff166112085760405162461bcd60e51b8152602060048201526011602482015270155b9a5cddd85c158c8e881313d0d2d151607a1b60448201526064016103d3565b600e805460ff191690556006546007546008546040516370a0823160e01b81523060048201526001600160a01b039384169390921691839163a9059cbb9186919084906370a0823190602401602060405180830381865afa158015611271573d6000803e3d6000fd5b505050506040513d601f19601f820116820180604052508101906112959190611bcb565b61129f9190611bfa565b6040516001600160e01b031960e085901b1681526001600160a01b03909216600483015260248201526044016020604051808303816000875af11580156112ea573d6000803e3d6000fd5b505050506040513d601f19601f8201168201806040525081019061130e9190611b5c565b506009546040516370a0823160e01b81523060048201526001600160a01b0383169163a9059cbb9186919084906370a0823190602401602060405180830381865afa158015611361573d6000803e3d6000fd5b505050506040513d601f19601f820116820180604052508101906113859190611bcb565b61138f9190611bfa565b6040516001600160e01b031960e085901b1681526001600160a01b03909216600483015260248201526044016020604051808303816000875af11580156113da573d6000803e3d6000fd5b505050506040513d601f19601f820116820180604052508101906113fe9190611b5c565b5050600e805460ff191660011790555050565b600e5460ff166114575760405162461bcd60e51b8152602060048201526011602482015270155b9a5cddd85c158c8e881313d0d2d151607a1b60448201526064016103d3565b600e805460ff191690556006546040516370a0823160e01b8152306004820152611546916001600160a01b0316906370a0823190602401602060405180830381865afa1580156114ab573d6000803e3d6000fd5b505050506040513d601f19601f820116820180604052508101906114cf9190611bcb565b6007546040516370a0823160e01b81523060048201526001600160a01b03909116906370a0823190602401602060405180830381865afa158015611517573d6000803e3d6000fd5b505050506040513d601f19601f8201168201806040525081019061153b9190611bcb565b600854600954611555565b600e805460ff19166001179055565b600061156664010000000042611c82565b60088690556009859055600a805463ffffffff191663ffffffff831617905560408051878152602081018790529192507fcf2aa50876cdfbb541206f89af0ee78d44a2abf8d328e37fa4917f982149848a910160405180910390a15050505050565b6115d583838360016117b0565b505050565b6001600160a01b03838116600090815260016020908152604080832093861683529290522054600019811015611653578181101561164457604051637dc7a0d960e11b81526001600160a01b038416600482015260248101829052604481018390526064016103d3565b611653848484840360006117b0565b50505050565b6001600160a01b03831661168357604051634b637e8f60e11b8152600060048201526024016103d3565b6001600160a01b0382166116ad5760405163ec442f0560e01b8152600060048201526024016103d3565b6115d5838383611885565b6000600382111561171957508060006116d2600283611c6e565b6116dd906001611c96565b90505b81811015611713579050806002816116f88186611c6e565b6117029190611c96565b61170c9190611c6e565b90506116e0565b50919050565b8115611723575060015b919050565b6001600160a01b0382166117525760405163ec442f0560e01b8152600060048201526024016103d3565b61175e60008383611885565b5050565b60008183106117715781611773565b825b9392505050565b6001600160a01b0382166117a457604051634b637e8f60e11b8152600060048201526024016103d3565b61175e82600083611885565b6001600160a01b0384166117da5760405163e602df0560e01b8152600060048201526024016103d3565b6001600160a01b03831661180457604051634a1406b160e11b8152600060048201526024016103d3565b6001600160a01b038085166000908152600160209081526040808320938716835292905220829055801561165357826001600160a01b0316846001600160a01b03167f8c5be1e5ebec7d5bd14f71427d1e84f3dd0314c0f7b2291e5b200ac8c7c3b9258460405161187791815260200190565b60405180910390a350505050565b6001600160a01b0383166118b05780600260008282546118a59190611c96565b909155506119229050565b6001600160a01b038316600090815260208190526040902054818110156119035760405163391434e360e21b81526001600160a01b038516600482015260248101829052604481018390526064016103d3565b6001600160a01b03841660009081526020819052604090209082900390555b6001600160a01b03821661193e5760028054829003905561195d565b6001600160a01b03821660009081526020819052604090208054820190555b816001600160a01b0316836001600160a01b03167fddf252ad1be2c89b69c2b068fc378daa952ba7f163c4a11628f55a4df523b3ef836040516119a291815260200190565b60405180910390a3505050565b80356001600160a01b038116811461172357600080fd5b6000806000806000608086880312156119de57600080fd5b85359450602086013593506119f5604087016119af565b9250606086013567ffffffffffffffff80821115611a1257600080fd5b818801915088601f830112611a2657600080fd5b813581811115611a3557600080fd5b896020828501011115611a4757600080fd5b9699959850939650602001949392505050565b600060208083528351808285015260005b81811015611a8757858101830151858201604001528201611a6b565b506000604082860101526040601f19601f8301168501019250505092915050565b60008060408385031215611abb57600080fd5b611ac4836119af565b946020939093013593505050565b600080600060608486031215611ae757600080fd5b611af0846119af565b9250611afe602085016119af565b9150604084013590509250925092565b60008060408385031215611b2157600080fd5b611b2a836119af565b9150611b38602084016119af565b90509250929050565b600060208284031215611b5357600080fd5b611773826119af565b600060208284031215611b6e57600080fd5b8151801515811461177357600080fd5b6001600160a01b038616815284602082015283604082015260806060820152816080820152818360a0830137600081830160a090810191909152601f909201601f19160101949350505050565b600060208284031215611bdd57600080fd5b5051919050565b634e487b7160e01b600052601160045260246000fd5b81810381811115610a0e57610a0e611be4565b8082028115828204841417610a0e57610a0e611be4565b600181811c90821680611c3857607f821691505b60208210810361171357634e487b7160e01b600052602260045260246000fd5b634e487b7160e01b600052601260045260246000fd5b600082611c7d57611c7d611c58565b500490565b600082611c9157611c91611c58565b500690565b80820180821115610a0e57610a0e611be456fea26469706673582212203ad3735dce13c4a13a61b33442929abf86f92341508759a6c8c1104cc277e89f64736f6c63430008140033",
  "linkReferences": {},
  "deployedLinkReferences": {}
}