{
  "_format": "hh-sol-artifact-1",
  "contractName": "UniswapV2SwapExamples",
  "sourceName": "contracts/UniswapV2Swap.sol",
  "abi": [
    {
      "inputs": [
        {
          "internalType": "address",
          "name": "_router",
          "type": "address"
        },
        {
          "internalType": "address",
          "name": "_weth",
          "type": "address"
        }
      ],
      "stateMutability": "nonpayable",
      "type": "constructor"
    },
    {
      "inputs": [],
      "name": "firstToken",
      "outputs": [
        {
          "internalType": "contract IERC20",
          "name": "",
          "type": "address"
        }
      ],
      "stateMutability": "view",
      "type": "function"
    },
    {
      "inputs": [],
      "name": "router",
      "outputs": [
        {
          "internalType": "contract IUniswapV2Router",
          "name": "",
          "type": "address"
        }
      ],
      "stateMutability": "view",
      "type": "function"
    },
    {
      "inputs": [
        {
          "internalType": "uint256",
          "name": "amountIn",
          "type": "uint256"
        },
        {
          "internalType": "uint256",
          "name": "amountOutMin",
          "type": "uint256"
        },
        {
          "internalType": "address",
          "name": "token0",
          "type": "address"
        },
        {
          "internalType": "address",
          "name": "token1",
          "type": "address"
        }
      ],
      "name": "swapSingleHopExactAmountIn",
      "outputs": [
        {
          "internalType": "uint256",
          "name": "amountOut",
          "type": "uint256"
        }
      ],
      "stateMutability": "nonpayable",
      "type": "function"
    },
    {
      "inputs": [
        {
          "internalType": "address",
          "name": "token0",
          "type": "address"
        },
        {
          "internalType": "address",
          "name": "token1",
          "type": "address"
        },
        {
          "internalType": "uint256",
          "name": "amountOutDesired",
          "type": "uint256"
        },
        {
          "internalType": "uint256",
          "name": "amountInMax",
          "type": "uint256"
        }
      ],
      "name": "swapSingleHopExactAmountOut",
      "outputs": [
        {
          "internalType": "uint256",
          "name": "amountOut",
          "type": "uint256"
        }
      ],
      "stateMutability": "nonpayable",
      "type": "function"
    },
    {
      "inputs": [],
      "name": "weth",
      "outputs": [
        {
          "internalType": "contract IWETH",
          "name": "",
          "type": "address"
        }
      ],
      "stateMutability": "view",
      "type": "function"
    }
  ],
  "bytecode": "0x608060405234801561001057600080fd5b50604051610b53380380610b5383398101604081905261002f9161007c565b600080546001600160a01b039384166001600160a01b031991821617909155600180549290931691161790556100af565b80516001600160a01b038116811461007757600080fd5b919050565b6000806040838503121561008f57600080fd5b61009883610060565b91506100a660208401610060565b90509250929050565b610a95806100be6000396000f3fe608060405234801561001057600080fd5b50600436106100575760003560e01c806336eea8751461005c5780633fc8cef31461008257806346da99a0146100ad5780636bb0e77b146100c0578063f887ea40146100d3575b600080fd5b61006f61006a36600461082c565b6100e6565b6040519081526020015b60405180910390f35b600154610095906001600160a01b031681565b6040516001600160a01b039091168152602001610079565b61006f6100bb36600461086e565b6105b8565b600254610095906001600160a01b031681565b600054610095906001600160a01b031681565b60408051600280825260608083018452600093909291906020830190803683375050600154919250506001600160a01b0387811691160361021c576001546040516323b872dd60e01b8152336004820152306024820152604481018590526001600160a01b03909116906323b872dd906064016020604051808303816000875af1158015610178573d6000803e3d6000fd5b505050506040513d601f19601f8201168201806040525081019061019c91906108ca565b5060015460005460405163095ea7b360e01b81526001600160a01b0391821660048201526024810186905291169063095ea7b3906044016020604051808303816000875af11580156101f2573d6000803e3d6000fd5b505050506040513d601f19601f8201168201806040525081019061021691906108ca565b50610322565b600280546001600160a01b0319166001600160a01b0388169081179091556040516323b872dd60e01b8152336004820152306024820152604481018590526323b872dd906064016020604051808303816000875af1158015610282573d6000803e3d6000fd5b505050506040513d601f19601f820116820180604052508101906102a691906108ca565b5060025460005460405163095ea7b360e01b81526001600160a01b0391821660048201526024810186905291169063095ea7b3906044016020604051808303816000875af11580156102fc573d6000803e3d6000fd5b505050506040513d601f19601f8201168201806040525081019061032091906108ca565b505b8581600081518110610336576103366108f3565b60200260200101906001600160a01b031690816001600160a01b031681525050848160018151811061036a5761036a6108f3565b6001600160a01b03928316602091820292909201015260008054604051634401edf760e11b815291921690638803dbee906103b19088908890879033904290600401610909565b6000604051808303816000875af11580156103d0573d6000803e3d6000fd5b505050506040513d6000823e601f3d908101601f191682016040526103f8919081019061097a565b9050838160008151811061040e5761040e6108f3565b60200260200101511015610591576001546001600160a01b038881169116036104e35760015481516001600160a01b039091169063a9059cbb903390849060009061045b5761045b6108f3565b60200260200101518761046e9190610a38565b6040516001600160e01b031960e085901b1681526001600160a01b03909216600483015260248201526044016020604051808303816000875af11580156104b9573d6000803e3d6000fd5b505050506040513d601f19601f820116820180604052508101906104dd91906108ca565b50610591565b60025481516001600160a01b039091169063a9059cbb903390849060009061050d5761050d6108f3565b6020026020010151876105209190610a38565b6040516001600160e01b031960e085901b1681526001600160a01b03909216600483015260248201526044016020604051808303816000875af115801561056b573d6000803e3d6000fd5b505050506040513d601f19601f8201168201806040525081019061058f91906108ca565b505b806001815181106105a4576105a46108f3565b602002602001015192505050949350505050565b60408051600280825260608083018452600093909291906020830190803683375050600154919250506001600160a01b0385811691160361061357600280546001600160a01b0319166001600160a01b03861617905561062f565b600280546001600160a01b0319166001600160a01b0386161790555b6002546040516323b872dd60e01b8152336004820152306024820152604481018890526001600160a01b03909116906323b872dd906064016020604051808303816000875af1158015610686573d6000803e3d6000fd5b505050506040513d601f19601f820116820180604052508101906106aa91906108ca565b5060025460005460405163095ea7b360e01b81526001600160a01b0391821660048201526024810189905291169063095ea7b3906044016020604051808303816000875af1158015610700573d6000803e3d6000fd5b505050506040513d601f19601f8201168201806040525081019061072491906108ca565b508381600081518110610739576107396108f3565b60200260200101906001600160a01b031690816001600160a01b031681525050828160018151811061076d5761076d6108f3565b6001600160a01b039283166020918202929092010152600080546040516338ed173960e01b8152919216906338ed1739906107b4908a908a90879033904290600401610909565b6000604051808303816000875af11580156107d3573d6000803e3d6000fd5b505050506040513d6000823e601f3d908101601f191682016040526107fb919081019061097a565b9050806001815181106105a4576105a46108f3565b80356001600160a01b038116811461082757600080fd5b919050565b6000806000806080858703121561084257600080fd5b61084b85610810565b935061085960208601610810565b93969395505050506040820135916060013590565b6000806000806080858703121561088457600080fd5b843593506020850135925061089b60408601610810565b91506108a960608601610810565b905092959194509250565b634e487b7160e01b600052604160045260246000fd5b6000602082840312156108dc57600080fd5b815180151581146108ec57600080fd5b9392505050565b634e487b7160e01b600052603260045260246000fd5b600060a082018783526020878185015260a0604085015281875180845260c086019150828901935060005b818110156109595784516001600160a01b031683529383019391830191600101610934565b50506001600160a01b03969096166060850152505050608001529392505050565b6000602080838503121561098d57600080fd5b825167ffffffffffffffff808211156109a557600080fd5b818501915085601f8301126109b957600080fd5b8151818111156109cb576109cb6108b4565b8060051b604051601f19603f830116810181811085821117156109f0576109f06108b4565b604052918252848201925083810185019188831115610a0e57600080fd5b938501935b82851015610a2c57845184529385019392850192610a13565b98975050505050505050565b81810381811115610a5957634e487b7160e01b600052601160045260246000fd5b9291505056fea264697066735822122042b8eab9b77d99a5bd45df4e5b96f928d69aa1efc86bcd0118336d2e921d1b3f64736f6c63430008140033",
  "linkReferences": {},
  "deployedLinkReferences": {}
}