{
  "_format": "hh-sol-artifact-1",
  "contractName": "UniswapV2Router02",
  "sourceName": "contracts/UniswapV2Router02.sol",
  "abi": [
    {
      "inputs": [
        {
          "internalType": "address",
          "name": "_factory",
          "type": "address"
        },
        {
          "internalType": "address",
          "name": "_WETH",
          "type": "address"
        }
      ],
      "stateMutability": "nonpayable",
      "type": "constructor"
    },
    {
      "inputs": [],
      "name": "WETH",
      "outputs": [
        {
          "internalType": "address",
          "name": "",
          "type": "address"
        }
      ],
      "stateMutability": "view",
      "type": "function"
    },
    {
      "inputs": [
        {
          "internalType": "address",
          "name": "tokenA",
          "type": "address"
        },
        {
          "internalType": "address",
          "name": "tokenB",
          "type": "address"
        },
        {
          "internalType": "uint256",
          "name": "amountADesired",
          "type": "uint256"
        },
        {
          "internalType": "uint256",
          "name": "amountBDesired",
          "type": "uint256"
        },
        {
          "internalType": "uint256",
          "name": "amountAMin",
          "type": "uint256"
        },
        {
          "internalType": "uint256",
          "name": "amountBMin",
          "type": "uint256"
        },
        {
          "internalType": "address",
          "name": "to",
          "type": "address"
        },
        {
          "internalType": "uint256",
          "name": "deadline",
          "type": "uint256"
        }
      ],
      "name": "addLiquidity",
      "outputs": [
        {
          "internalType": "uint256",
          "name": "amountA",
          "type": "uint256"
        },
        {
          "internalType": "uint256",
          "name": "amountB",
          "type": "uint256"
        },
        {
          "internalType": "uint256",
          "name": "liquidity",
          "type": "uint256"
        }
      ],
      "stateMutability": "nonpayable",
      "type": "function"
    },
    {
      "inputs": [],
      "name": "factory",
      "outputs": [
        {
          "internalType": "address",
          "name": "",
          "type": "address"
        }
      ],
      "stateMutability": "view",
      "type": "function"
    }
  ],
  "bytecode": "0x60c060405234801561001057600080fd5b50604051610c81380380610c8183398101604081905261002f91610062565b6001600160a01b039182166080521660a052610095565b80516001600160a01b038116811461005d57600080fd5b919050565b6000806040838503121561007557600080fd5b61007e83610046565b915061008c60208401610046565b90509250929050565b60805160a051610bad6100d46000396000604b015260008181608f01528181610178015281816102a90152818161034b01526106800152610bad6000f3fe608060405234801561001057600080fd5b50600436106100415760003560e01c8063ad5c464814610046578063c45a01551461008a578063e8e33700146100b1575b600080fd5b61006d7f000000000000000000000000000000000000000000000000000000000000000081565b6040516001600160a01b0390911681526020015b60405180910390f35b61006d7f000000000000000000000000000000000000000000000000000000000000000081565b6100c46100bf366004610997565b6100df565b60408051938452602084019290925290820152606001610081565b6000806000834281101561013a5760405162461bcd60e51b815260206004820152601860248201527f556e69737761705632526f757465723a2045585049524544000000000000000060448201526064015b60405180910390fd5b6101488c8c8c8c8c8c61027b565b60405163e6a4390560e01b81526001600160a01b038f811660048301528e811660248301529296509094506000917f0000000000000000000000000000000000000000000000000000000000000000169063e6a4390590604401602060405180830381865afa1580156101bf573d6000803e3d6000fd5b505050506040513d601f19601f820116820180604052508101906101e39190610a13565b90506101f18d3383886104fc565b6101fd8c3383876104fc565b6040516335313c2160e11b81526001600160a01b038881166004830152821690636a627842906024016020604051808303816000875af1158015610245573d6000803e3d6000fd5b505050506040513d601f19601f820116820180604052508101906102699190610a37565b92505050985098509895505050505050565b60405163e6a4390560e01b81526001600160a01b0387811660048301528681166024830152600091829182917f00000000000000000000000000000000000000000000000000000000000000009091169063e6a4390590604401602060405180830381865afa1580156102f2573d6000803e3d6000fd5b505050506040513d601f19601f820116820180604052508101906103169190610a13565b6001600160a01b0316036103ba576040516364e329cb60e11b81526001600160a01b03898116600483015288811660248301527f0000000000000000000000000000000000000000000000000000000000000000169063c9c65396906044016020604051808303816000875af1158015610394573d6000803e3d6000fd5b505050506040513d601f19601f820116820180604052508101906103b89190610a13565b505b6000806103c78a8a610641565b915091508160001480156103d9575080155b156103e9578793508692506104ef565b60006103f68984846107a4565b9050878111610469578581101561045e5760405162461bcd60e51b815260206004820152602660248201527f556e69737761705632526f757465723a20494e53554646494349454e545f425f604482015265105353d5539560d21b6064820152608401610131565b8894509250826104ed565b60006104768984866107a4565b90508981111561048857610488610a50565b878110156104e75760405162461bcd60e51b815260206004820152602660248201527f556e69737761705632526f757465723a20494e53554646494349454e545f415f604482015265105353d5539560d21b6064820152608401610131565b94508793505b505b5050965096945050505050565b604080516001600160a01b0385811660248301528481166044830152606480830185905283518084039091018152608490920183526020820180517bffffffffffffffffffffffffffffffffffffffffffffffffffffffff166323b872dd60e01b17905291516000928392908816916105759190610a66565b6000604051808303816000865af19150503d80600081146105b2576040519150601f19603f3d011682016040523d82523d6000602084013e6105b7565b606091505b50915091508180156105e15750805115806105e15750808060200190518101906105e19190610a95565b6106395760405162461bcd60e51b8152602060048201526024808201527f5472616e7366657248656c7065723a205452414e534645525f46524f4d5f46416044820152631253115160e21b6064820152608401610131565b505050505050565b6000806000610650858561088a565b5060405163e6a4390560e01b81526001600160a01b038781166004830152868116602483015291925060009182917f00000000000000000000000000000000000000000000000000000000000000009091169063e6a4390590604401602060405180830381865afa1580156106c9573d6000803e3d6000fd5b505050506040513d601f19601f820116820180604052508101906106ed9190610a13565b6001600160a01b0316630902f1ac6040518163ffffffff1660e01b8152600401606060405180830381865afa15801561072a573d6000803e3d6000fd5b505050506040513d601f19601f8201168201806040525081019061074e9190610ada565b506dffffffffffffffffffffffffffff1691506dffffffffffffffffffffffffffff169150826001600160a01b0316876001600160a01b031614610793578082610796565b81815b909890975095505050505050565b60008084116108015760405162461bcd60e51b8152602060048201526024808201527f556e69737761705632526f757465723a20494e53554646494349454e545f414d60448201526313d5539560e21b6064820152608401610131565b6000831180156108115750600082115b61086d5760405162461bcd60e51b815260206004820152602760248201527f556e69737761705632526f757465723a20494e53554646494349454e545f4c496044820152665155494449545960c81b6064820152608401610131565b826108788386610b2a565b6108829190610b55565b949350505050565b600080826001600160a01b0316846001600160a01b0316036108fa5760405162461bcd60e51b8152602060048201526024808201527f556e69737761705632526f757465723a204944454e544943414c5f41444452456044820152635353455360e01b6064820152608401610131565b826001600160a01b0316846001600160a01b03161061091a57828461091d565b83835b90925090506001600160a01b0382166109785760405162461bcd60e51b815260206004820152601d60248201527f556e69737761705632526f757465723a205a45524f5f414444524553530000006044820152606401610131565b9250929050565b6001600160a01b038116811461099457600080fd5b50565b600080600080600080600080610100898b0312156109b457600080fd5b88356109bf8161097f565b975060208901356109cf8161097f565b965060408901359550606089013594506080890135935060a0890135925060c08901356109fb8161097f565b8092505060e089013590509295985092959890939650565b600060208284031215610a2557600080fd5b8151610a308161097f565b9392505050565b600060208284031215610a4957600080fd5b5051919050565b634e487b7160e01b600052600160045260246000fd5b6000825160005b81811015610a875760208186018101518583015201610a6d565b506000920191825250919050565b600060208284031215610aa757600080fd5b81518015158114610a3057600080fd5b80516dffffffffffffffffffffffffffff81168114610ad557600080fd5b919050565b600080600060608486031215610aef57600080fd5b610af884610ab7565b9250610b0660208501610ab7565b9150604084015163ffffffff81168114610b1f57600080fd5b809150509250925092565b8082028115828204841417610b4f57634e487b7160e01b600052601160045260246000fd5b92915050565b600082610b7257634e487b7160e01b600052601260045260246000fd5b50049056fea2646970667358221220f4c55d892275b79af847dbd856a0ac6d00a43ae87e554a53e377665991b121e564736f6c63430008140033",
  "linkReferences": {},
  "deployedLinkReferences": {}
}