{
  "_format": "hh-sol-artifact-1",
  "contractName": "UniswapV2Router02",
  "sourceName": "contracts/UniswapV2Router02.sol",
  "abi": [
    {
      "inputs": [
        {
          "internalType": "address",
          "name": "_factory",
          "type": "address"
        },
        {
          "internalType": "address",
          "name": "_WETH",
          "type": "address"
        }
      ],
      "stateMutability": "nonpayable",
      "type": "constructor"
    },
    {
      "inputs": [],
      "name": "WETH",
      "outputs": [
        {
          "internalType": "address",
          "name": "",
          "type": "address"
        }
      ],
      "stateMutability": "view",
      "type": "function"
    },
    {
      "inputs": [
        {
          "internalType": "address",
          "name": "tokenA",
          "type": "address"
        },
        {
          "internalType": "address",
          "name": "tokenB",
          "type": "address"
        },
        {
          "internalType": "uint256",
          "name": "amountADesired",
          "type": "uint256"
        },
        {
          "internalType": "uint256",
          "name": "amountBDesired",
          "type": "uint256"
        },
        {
          "internalType": "uint256",
          "name": "amountAMin",
          "type": "uint256"
        },
        {
          "internalType": "uint256",
          "name": "amountBMin",
          "type": "uint256"
        },
        {
          "internalType": "address",
          "name": "to",
          "type": "address"
        },
        {
          "internalType": "uint256",
          "name": "deadline",
          "type": "uint256"
        }
      ],
      "name": "addLiquidity",
      "outputs": [
        {
          "internalType": "uint256",
          "name": "amountA",
          "type": "uint256"
        },
        {
          "internalType": "uint256",
          "name": "amountB",
          "type": "uint256"
        },
        {
          "internalType": "uint256",
          "name": "liquidity",
          "type": "uint256"
        }
      ],
      "stateMutability": "nonpayable",
      "type": "function"
    },
    {
      "inputs": [],
      "name": "factory",
      "outputs": [
        {
          "internalType": "address",
          "name": "",
          "type": "address"
        }
      ],
      "stateMutability": "view",
      "type": "function"
    },
    {
      "inputs": [
        {
          "internalType": "uint256",
          "name": "amountIn",
          "type": "uint256"
        },
        {
          "internalType": "uint256",
          "name": "amountOutMin",
          "type": "uint256"
        },
        {
          "internalType": "address[]",
          "name": "path",
          "type": "address[]"
        },
        {
          "internalType": "address",
          "name": "to",
          "type": "address"
        },
        {
          "internalType": "uint256",
          "name": "deadline",
          "type": "uint256"
        }
      ],
      "name": "swapExactTokensForTokens",
      "outputs": [
        {
          "internalType": "uint256[]",
          "name": "amounts",
          "type": "uint256[]"
        }
      ],
      "stateMutability": "nonpayable",
      "type": "function"
    }
  ],
  "bytecode": "0x60c060405234801561001057600080fd5b506040516115bf3803806115bf83398101604081905261002f91610062565b6001600160a01b039182166080521660a052610095565b80516001600160a01b038116811461005d57600080fd5b919050565b6000806040838503121561007557600080fd5b61007e83610046565b915061008c60208401610046565b90509250929050565b60805160a0516114cf6100f06000396000607f01526000818160be0152818161016b01528181610281015281816103f3015281816109270152818161097701528181610a7a01528181610b1c0152610b9301526114cf6000f3fe608060405234801561001057600080fd5b506004361061004c5760003560e01c806338ed173914610051578063ad5c46481461007a578063c45a0155146100b9578063e8e33700146100e0575b600080fd5b61006461005f3660046110e6565b61010e565b6040516100719190611188565b60405180910390f35b6100a17f000000000000000000000000000000000000000000000000000000000000000081565b6040516001600160a01b039091168152602001610071565b6100a17f000000000000000000000000000000000000000000000000000000000000000081565b6100f36100ee3660046111cc565b61035f565b60408051938452602084019290925290820152606001610071565b606081428110156101665760405162461bcd60e51b815260206004820152601860248201527f556e69737761705632526f757465723a2045585049524544000000000000000060448201526064015b60405180910390fd5b6101c47f0000000000000000000000000000000000000000000000000000000000000000898888808060200260200160405190810160405280939291908181526020018383602002808284376000920191909152506104f692505050565b91508682600184516101d6919061125e565b815181106101e6576101e6611277565b602002602001015110156102505760405162461bcd60e51b815260206004820152602b60248201527f556e69737761705632526f757465723a20494e53554646494349454e545f4f5560448201526a1514155517d05353d5539560aa1b606482015260840161015d565b6103158686600081811061026657610266611277565b905060200201602081019061027b919061128d565b336102f57f00000000000000000000000000000000000000000000000000000000000000008a8a60008181106102b3576102b3611277565b90506020020160208101906102c8919061128d565b8b8b60018181106102db576102db611277565b90506020020160208101906102f0919061128d565b610681565b8560008151811061030857610308611277565b60200260200101516106ff565b61035482878780806020026020016040519081016040528093929190818152602001838360200280828437600092019190915250899250610844915050565b509695505050505050565b600080600083428110156103b55760405162461bcd60e51b815260206004820152601860248201527f556e69737761705632526f757465723a20455850495245440000000000000000604482015260640161015d565b6103c38c8c8c8c8c8c610a4c565b60405163e6a4390560e01b81526001600160a01b038f811660048301528e811660248301529296509094506000917f0000000000000000000000000000000000000000000000000000000000000000169063e6a4390590604401602060405180830381865afa15801561043a573d6000803e3d6000fd5b505050506040513d601f19601f8201168201806040525081019061045e91906112b1565b905061046c8d3383886106ff565b6104788c3383876106ff565b6040516335313c2160e11b81526001600160a01b038881166004830152821690636a627842906024016020604051808303816000875af11580156104c0573d6000803e3d6000fd5b505050506040513d601f19601f820116820180604052508101906104e491906112ce565b92505050985098509895505050505050565b606060028251101561054a5760405162461bcd60e51b815260206004820152601e60248201527f556e697377617056324c6962726172793a20494e56414c49445f504154480000604482015260640161015d565b815167ffffffffffffffff811115610564576105646112e7565b60405190808252806020026020018201604052801561058d578160200160208202803683370190505b50905082816000815181106105a4576105a4611277565b60200260200101818152505060005b600183516105c1919061125e565b81101561067957600080610614878685815181106105e1576105e1611277565b6020026020010151878660016105f791906112fd565b8151811061060757610607611277565b6020026020010151610cee565b9150915061063c84848151811061062d5761062d611277565b60200260200101518383610dc6565b846106488560016112fd565b8151811061065857610658611277565b6020026020010181815250505050808061067190611310565b9150506105b3565b509392505050565b60405163e6a4390560e01b81526001600160a01b03838116600483015282811660248301526000919085169063e6a4390590604401602060405180830381865afa1580156106d3573d6000803e3d6000fd5b505050506040513d601f19601f820116820180604052508101906106f791906112b1565b949350505050565b604080516001600160a01b0385811660248301528481166044830152606480830185905283518084039091018152608490920183526020820180517bffffffffffffffffffffffffffffffffffffffffffffffffffffffff166323b872dd60e01b1790529151600092839290881691610778919061134d565b6000604051808303816000865af19150503d80600081146107b5576040519150601f19603f3d011682016040523d82523d6000602084013e6107ba565b606091505b50915091508180156107e45750805115806107e45750808060200190518101906107e49190611369565b61083c5760405162461bcd60e51b8152602060048201526024808201527f5472616e7366657248656c7065723a205452414e534645525f46524f4d5f46416044820152631253115160e21b606482015260840161015d565b505050505050565b60005b60018351610855919061125e565b811015610a465760008084838151811061087157610871611277565b60200260200101518584600161088791906112fd565b8151811061089757610897611277565b60200260200101519150915060006108af8383610ee6565b5090506000876108c08660016112fd565b815181106108d0576108d0611277565b60200260200101519050600080836001600160a01b0316866001600160a01b0316146108fe57826000610902565b6000835b91509150600060028a51610916919061125e565b88106109225788610970565b6109707f0000000000000000000000000000000000000000000000000000000000000000878c6109538c60026112fd565b8151811061096357610963611277565b6020026020010151610681565b905061099d7f00000000000000000000000000000000000000000000000000000000000000008888610681565b6001600160a01b031663022c0d9f84848460006040519080825280601f01601f1916602001820160405280156109da576020820181803683370190505b506040518563ffffffff1660e01b81526004016109fa949392919061138b565b600060405180830381600087803b158015610a1457600080fd5b505af1158015610a28573d6000803e3d6000fd5b50505050505050505050508080610a3e90611310565b915050610847565b50505050565b60405163e6a4390560e01b81526001600160a01b0387811660048301528681166024830152600091829182917f00000000000000000000000000000000000000000000000000000000000000009091169063e6a4390590604401602060405180830381865afa158015610ac3573d6000803e3d6000fd5b505050506040513d601f19601f82011682018060405250810190610ae791906112b1565b6001600160a01b031603610b8b576040516364e329cb60e11b81526001600160a01b03898116600483015288811660248301527f0000000000000000000000000000000000000000000000000000000000000000169063c9c65396906044016020604051808303816000875af1158015610b65573d6000803e3d6000fd5b505050506040513d601f19601f82011682018060405250810190610b8991906112b1565b505b600080610bb97f00000000000000000000000000000000000000000000000000000000000000008b8b610cee565b91509150816000148015610bcb575080155b15610bdb57879350869250610ce1565b6000610be8898484610fdd565b9050878111610c5b5785811015610c505760405162461bcd60e51b815260206004820152602660248201527f556e69737761705632526f757465723a20494e53554646494349454e545f425f604482015265105353d5539560d21b606482015260840161015d565b889450925082610cdf565b6000610c68898486610fdd565b905089811115610c7a57610c7a6113dc565b87811015610cd95760405162461bcd60e51b815260206004820152602660248201527f556e69737761705632526f757465723a20494e53554646494349454e545f415f604482015265105353d5539560d21b606482015260840161015d565b94508793505b505b5050965096945050505050565b6000806000610cfd8585610ee6565b509050600080610d0e888888610681565b6001600160a01b0316630902f1ac6040518163ffffffff1660e01b8152600401606060405180830381865afa158015610d4b573d6000803e3d6000fd5b505050506040513d601f19601f82011682018060405250810190610d6f9190611410565b506dffffffffffffffffffffffffffff1691506dffffffffffffffffffffffffffff169150826001600160a01b0316876001600160a01b031614610db4578082610db7565b81815b90999098509650505050505050565b6000808411610e2b5760405162461bcd60e51b815260206004820152602b60248201527f556e697377617056324c6962726172793a20494e53554646494349454e545f4960448201526a1394155517d05353d5539560aa1b606482015260840161015d565b600083118015610e3b5750600082115b610e985760405162461bcd60e51b815260206004820152602860248201527f556e697377617056324c6962726172793a20494e53554646494349454e545f4c604482015267495155494449545960c01b606482015260840161015d565b6000610ea6856103e5611460565b90506000610eb48483611460565b9050600082610ec5876103e8611460565b610ecf91906112fd565b9050610edb8183611477565b979650505050505050565b600080826001600160a01b0316846001600160a01b031603610f585760405162461bcd60e51b815260206004820152602560248201527f556e697377617056324c6962726172793a204944454e544943414c5f41444452604482015264455353455360d81b606482015260840161015d565b826001600160a01b0316846001600160a01b031610610f78578284610f7b565b83835b90925090506001600160a01b038216610fd65760405162461bcd60e51b815260206004820152601e60248201527f556e697377617056324c6962726172793a205a45524f5f414444524553530000604482015260640161015d565b9250929050565b600080841161103c5760405162461bcd60e51b815260206004820152602560248201527f556e697377617056324c6962726172793a20494e53554646494349454e545f416044820152641353d5539560da1b606482015260840161015d565b60008311801561104c5750600082115b6110a95760405162461bcd60e51b815260206004820152602860248201527f556e697377617056324c6962726172793a20494e53554646494349454e545f4c604482015267495155494449545960c01b606482015260840161015d565b826110b48386611460565b6106f79190611477565b6001600160a01b03811681146110d357600080fd5b50565b80356110e1816110be565b919050565b60008060008060008060a087890312156110ff57600080fd5b8635955060208701359450604087013567ffffffffffffffff8082111561112557600080fd5b818901915089601f83011261113957600080fd5b81358181111561114857600080fd5b8a60208260051b850101111561115d57600080fd5b602083019650809550505050611175606088016110d6565b9150608087013590509295509295509295565b6020808252825182820181905260009190848201906040850190845b818110156111c0578351835292840192918401916001016111a4565b50909695505050505050565b600080600080600080600080610100898b0312156111e957600080fd5b88356111f4816110be565b97506020890135611204816110be565b965060408901359550606089013594506080890135935060a0890135925060c0890135611230816110be565b8092505060e089013590509295985092959890939650565b634e487b7160e01b600052601160045260246000fd5b8181038181111561127157611271611248565b92915050565b634e487b7160e01b600052603260045260246000fd5b60006020828403121561129f57600080fd5b81356112aa816110be565b9392505050565b6000602082840312156112c357600080fd5b81516112aa816110be565b6000602082840312156112e057600080fd5b5051919050565b634e487b7160e01b600052604160045260246000fd5b8082018082111561127157611271611248565b60006001820161132257611322611248565b5060010190565b60005b8381101561134457818101518382015260200161132c565b50506000910152565b6000825161135f818460208701611329565b9190910192915050565b60006020828403121561137b57600080fd5b815180151581146112aa57600080fd5b8481528360208201526001600160a01b038316604082015260806060820152600082518060808401526113c58160a0850160208701611329565b601f01601f19169190910160a00195945050505050565b634e487b7160e01b600052600160045260246000fd5b80516dffffffffffffffffffffffffffff811681146110e157600080fd5b60008060006060848603121561142557600080fd5b61142e846113f2565b925061143c602085016113f2565b9150604084015163ffffffff8116811461145557600080fd5b809150509250925092565b808202811582820484141761127157611271611248565b60008261149457634e487b7160e01b600052601260045260246000fd5b50049056fea26469706673582212201783438874382b1d7efd7885ac1f87086aebbf316dbadb9f369cf2073247447464736f6c63430008140033",
  "linkReferences": {},
  "deployedLinkReferences": {}
}