{
  "_format": "hh-sol-artifact-1",
  "contractName": "FlashSwapExample",
  "sourceName": "contracts/FlashSwapExample.sol",
  "abi": [
    {
      "inputs": [
        {
          "internalType": "address",
          "name": "_pair",
          "type": "address"
        }
      ],
      "stateMutability": "nonpayable",
      "type": "constructor"
    },
    {
      "inputs": [],
      "name": "pair",
      "outputs": [
        {
          "internalType": "address",
          "name": "",
          "type": "address"
        }
      ],
      "stateMutability": "view",
      "type": "function"
    },
    {
      "inputs": [
        {
          "internalType": "uint256",
          "name": "amount0Out",
          "type": "uint256"
        },
        {
          "internalType": "uint256",
          "name": "amount1Out",
          "type": "uint256"
        }
      ],
      "name": "startFlashSwap",
      "outputs": [],
      "stateMutability": "nonpayable",
      "type": "function"
    },
    {
      "inputs": [],
      "name": "token0",
      "outputs": [
        {
          "internalType": "address",
          "name": "",
          "type": "address"
        }
      ],
      "stateMutability": "view",
      "type": "function"
    },
    {
      "inputs": [],
      "name": "token1",
      "outputs": [
        {
          "internalType": "address",
          "name": "",
          "type": "address"
        }
      ],
      "stateMutability": "view",
      "type": "function"
    },
    {
      "inputs": [
        {
          "internalType": "address",
          "name": "sender",
          "type": "address"
        },
        {
          "internalType": "uint256",
          "name": "amount0",
          "type": "uint256"
        },
        {
          "internalType": "uint256",
          "name": "amount1",
          "type": "uint256"
        },
        {
          "internalType": "bytes",
          "name": "",
          "type": "bytes"
        }
      ],
      "name": "uniswapV2Call",
      "outputs": [],
      "stateMutability": "nonpayable",
      "type": "function"
    }
  ],
  "bytecode": "0x60e060405234801561001057600080fd5b5060405161082e38038061082e83398101604081905261002f9161012a565b6001600160a01b038116608081905260408051630dfe168160e01b81529051630dfe1681916004808201926020929091908290030181865afa158015610079573d6000803e3d6000fd5b505050506040513d601f19601f8201168201806040525081019061009d919061012a565b6001600160a01b031660a0816001600160a01b031681525050806001600160a01b031663d21220a76040518163ffffffff1660e01b8152600401602060405180830381865afa1580156100f4573d6000803e3d6000fd5b505050506040513d601f19601f82011682018060405250810190610118919061012a565b6001600160a01b031660c0525061015a565b60006020828403121561013c57600080fd5b81516001600160a01b038116811461015357600080fd5b9392505050565b60805160a05160c05161067e6101b06000396000818160f3015261031a0152600081816061015261022101526000818160cc015281816101200152818161024801528181610341015261040f015261067e6000f3fe608060405234801561001057600080fd5b50600436106100575760003560e01c80630dfe16811461005c57806310d1e85c1461009f5780635355161f146100b4578063a8aa1b31146100c7578063d21220a7146100ee575b600080fd5b6100837f000000000000000000000000000000000000000000000000000000000000000081565b6040516001600160a01b03909116815260200160405180910390f35b6100b26100ad366004610486565b610115565b005b6100b26100c2366004610528565b6103e3565b6100837f000000000000000000000000000000000000000000000000000000000000000081565b6100837f000000000000000000000000000000000000000000000000000000000000000081565b336001600160a01b037f000000000000000000000000000000000000000000000000000000000000000016146101925760405162461bcd60e51b815260206004820152601360248201527f43616c6c6572206d75737420626520706169720000000000000000000000000060448201526064015b60405180910390fd5b6001600160a01b03851630146101ea5760405162461bcd60e51b815260206004820152601c60248201527f53656e646572206d757374206265207468697320636f6e7472616374000000006044820152606401610189565b83156102e35760006103e5610200866003610560565b61020a919061057d565b61021590600161059f565b90506001600160a01b037f00000000000000000000000000000000000000000000000000000000000000001663a9059cbb7f0000000000000000000000000000000000000000000000000000000000000000610271848961059f565b6040516001600160e01b031960e085901b1681526001600160a01b03909216600483015260248201526044016020604051808303816000875af11580156102bc573d6000803e3d6000fd5b505050506040513d601f19601f820116820180604052508101906102e091906105b2565b50505b82156103dc5760006103e56102f9856003610560565b610303919061057d565b61030e90600161059f565b90506001600160a01b037f00000000000000000000000000000000000000000000000000000000000000001663a9059cbb7f000000000000000000000000000000000000000000000000000000000000000061036a848861059f565b6040516001600160e01b031960e085901b1681526001600160a01b03909216600483015260248201526044016020604051808303816000875af11580156103b5573d6000803e3d6000fd5b505050506040513d601f19601f820116820180604052508101906103d991906105b2565b50505b5050505050565b6040805133602080830191909152825180830390910181528183019283905263022c0d9f60e01b9092527f00000000000000000000000000000000000000000000000000000000000000006001600160a01b03169163022c0d9f91610450918691869130916044016105db565b600060405180830381600087803b15801561046a57600080fd5b505af115801561047e573d6000803e3d6000fd5b505050505050565b60008060008060006080868803121561049e57600080fd5b85356001600160a01b03811681146104b557600080fd5b94506020860135935060408601359250606086013567ffffffffffffffff808211156104e057600080fd5b818801915088601f8301126104f457600080fd5b81358181111561050357600080fd5b89602082850101111561051557600080fd5b9699959850939650602001949392505050565b6000806040838503121561053b57600080fd5b50508035926020909101359150565b634e487b7160e01b600052601160045260246000fd5b80820281158282048414176105775761057761054a565b92915050565b60008261059a57634e487b7160e01b600052601260045260246000fd5b500490565b808201808211156105775761057761054a565b6000602082840312156105c457600080fd5b815180151581146105d457600080fd5b9392505050565b8481526000602085818401526001600160a01b038516604084015260806060840152835180608085015260005b818110156106245785810183015185820160a001528201610608565b50600060a0828601015260a0601f19601f830116850101925050509594505050505056fea26469706673582212206b242b3a92e6e6ed531899fafb7c2d2102af0be77c9ecf7c2c868147e5f8d01064736f6c63430008140033",
  "linkReferences": {},
  "deployedLinkReferences": {}
}